:100000000C9452080C946F080C946F080C946F08B1
:100010000C946F080C946F080C946F080C946F0884
:100020000C946F080C946F080C946F080C946F0874
:100030000C946F080C946F080C946F080C946F0864
:100040000C946F080C946F080C94100B0C946F08B0
:100050000C946F080C946F080C946F080C946F0844
:100060000C946F080C946F08000000000000000062
:1000700000000000000000000000000007FFFFFF7C
:10008000E00FFFFFFFF01FFFFFFFF81FFFFFFFF86C
:100090001FFFFFFFF81FFFFFFFF81FFFFFFFF81F05
:1000A000FFFFFFF81FE00007F81FE00007F81FE060
:1000B0000007F81FE00007F81FE00007F81FE00046
:1000C00007F81FE00007F81FE00007F81FE000072F
:1000D000F81FE00007F81FE00007F81FE00007F82E
:1000E0001FE00007F81FE00007F81FE00007F81FF7
:1000F000E00007F81FE00007F81FE00007F81FE026
:100100000007F81FE00007F81FE00007F81FE000F5
:1001100007F81FE00007F81FE00007F81FE00007DE
:10012000F81FE00007F81FE00007F81FE00007F8DD
:100130001FE00007F81FE00007F81FE00007F81FA6
:10014000E00007F81FE00007F81FE00007F81FE0D5
:100150000007F81FE00007F81FE00007F81FE000A5
:1001600007F81FE00007F81FE00007F81FFFFFFF78
:10017000F81FFFFFFFF81FFFFFFFF81FFFFFFFF84B
:100180001FFFFFFFF81FFFFFFFF80FFFFFFFF00744
:10019000FFFFFFE000000000000000000000000082
:1001A000000000000000000000000000000000004F
:1001B00000000000000000000000000000003F8080
:1001C000000000FFC0000001FFC0000007FFC000EA
:1001D000001FFFC000003FFFC00000FFFFC0000184
:1001E000FFFFC00001FFFFC00001FFFFC00001FFD3
:1001F000FFC00001FFFFC00001FFFFC00001FFFFC3
:10020000C0000000FFC0000000FFC0000000FFC0F1
:10021000000000FFC0000000FFC0000000FFC000A1
:100220000000FFC0000000FFC0000000FFC0000091
:1002300000FFC0000000FFC0000000FFC000000081
:10024000FFC0000000FFC0000000FFC0000000FF72
:10025000C0000000FFC0000000FFC0000000FFC0A1
:10026000000000FFC0000000FFC0000000FFC00051
:100270000000FFC0000000FFC0000000FFC0000041
:1002800000FFC0000000FFC0000000FFC000000031
:10029000FFC0000000FFC0000000FFC0000000FF22
:1002A000C0000000FFC0000000FFC0000000FFC051
:1002B000000000FFC0000000FFC0000000FFC00001
:1002C0000000FFC0000000FFC0000000FFC00000F1
:1002D00000FFC0000000000000000000000000005F
:1002E000000000000000000000000000000000000E
:1002F00000000000000000000000000003FFFFFFFE
:10030000E007FFFFFFF00FFFFFFFF81FFFFFFFF801
:100310001FFFFFFFF81FFFFFFFF81FFFFFFFF81F82
:10032000FFFFFFF81FFFFFFFF80000001FF80000AD
:10033000000FF80000000FF80000000FF8000000A8
:100340000FF80000000FF80000000FF80000000F89
:10035000F80000000FF80000000FF80000000FF890
:100360000000000FF80000000FF80000000FF80078
:1003700000001FF807FFFFFFF80FFFFFFFF81FFF48
:10038000FFFFF81FFFFFFFF81FFFFFFFF81FFFFF32
:10039000FFF81FFFFFFFF81FFFFFFFF01FFFFFFF2A
:1003A000E01FF00000001FE00000001FE000000060
:1003B0001FE00000001FE00000001FE00000001F21
:1003C000E00000001FE00000001FE00000001FE050
:1003D0000000001FE00000001FE00000001FE00020
:1003E00000001FF00000001FFFFFFFF81FFFFFFFCE
:1003F000F81FFFFFFFF81FFFFFFFF81FFFFFFFF8C9
:100400001FFFFFFFF81FFFFFFFF81FFFFFFFF81F91
:10041000FFFFFFF8000000000000000000000000E7
:1004200000000000000000000000000000000000CC
:1004300000000000000000000000000007FFFFFFB8
:10044000E00FFFFFFFF01FFFFFFFF81FFFFFFFF8A8
:100450001FFFFFFFF81FFFFFFFF81FFFFFFFF81F41
:10046000FFFFFFF80FFFFFFFF80000000FF800008C
:10047000000FF80000000FF80000000FF800000067
:100480000FF80000000FF80000000FF80000000F48
:10049000F80000000FF80000000FF80000000FF84F
:1004A0000000000FF80000000FF80000000FF80037
:1004B0003FFFFFF8003FFFFFF8003FFFFFF8003F5E
:1004C000FFFFF8003FFFFFF8003FFFFFF8003FFF8E
:1004D000FFF8003FFFFFF8003FFFFFF80000000FAC
:1004E000F80000000FF80000000FF80000000FF8FF
:1004F0000000000FF80000000FF80000000FF800E7
:1005000000000FF80000000FF80000000FF80000D6
:10051000000FF80000000FF80000000FF8000000C6
:100520000FF80000000FF80FFFFFFFF81FFFFFFF9D
:10053000F81FFFFFFFF81FFFFFFFF81FFFFFFFF887
:100540001FFFFFFFF81FFFFFFFF81FFFFFFFF80F60
:10055000FFFFFFF0000000000000000000000000AE
:10056000000000000000000000000000000000008B
:1005700000000000000000000000000007F0000F75
:10058000E00FF0000FF01FF0000FF81FF0000FF861
:100590001FF0000FF81FF0000FF81FF0000FF81FFA
:1005A000F0000FF81FF0000FF81FF0000FF81FF019
:1005B000000FF81FF0000FF81FF0000FF81FF000F9
:1005C0000FF81FF0000FF81FF0000FF81FF0000FDA
:1005D000F81FF0000FF81FF0000FF81FF0000FF8E1
:1005E0001FF0000FF81FF0000FF81FF0000FF81FAA
:1005F000FFFFFFF81FFFFFFFF81FFFFFFFF81FFFC0
:10060000FFFFF81FFFFFFFF81FFFFFFFF81FFFFFAF
:10061000FFF81FFFFFFFF81FFFFFFFF80000000FAC
:10062000F80000000FF80000000FF80000000FF8BD
:100630000000000FF80000000FF80000000FF800A5
:1006400000000FF80000000FF80000000FF8000095
:10065000000FF80000000FF80000000FF800000085
:100660000FF80000000FF80000000FF80000000F66
:10067000F80000000FF80000000FF80000000FF86D
:100680000000000FF80000000FF80000000FF80055
:1006900000000FF00000000000000000000000005B
:1006A000000000000000000000000000000000004A
:1006B00000000000000000000000000003FFFFFF3A
:1006C000C007FFFFFFE00FFFFFFFF01FFFFFFFF876
:1006D0001FFFFFFFF81FFFFFFFF81FFFFFFFF81FBF
:1006E000FFFFFFF81FFFFFFFF81FF80000001FF0DB
:1006F0000000001FF00000001FF00000001FF000CD
:1007000000001FF00000001FF00000001FF00000BC
:10071000001FF00000001FF00000001FF0000000AC
:100720001FF00000001FF00000001FF80000001F75
:10073000FFFFFFC01FFFFFFFE01FFFFFFFF01FFFD6
:10074000FFFFF81FFFFFFFF81FFFFFFFF81FFFFF6E
:10075000FFF81FFFFFFFF81FFFFFFFF80000001F5B
:10076000F80000000FF80000000FF80000000FF87C
:100770000000000FF80000000FF80000000FF80064
:1007800000000FF80000000FF80000000FF8000054
:10079000000FF80000000FF80000000FF800000044
:1007A0000FF80000001FF80FFFFFFFF81FFFFFFF0B
:1007B000F81FFFFFFFF81FFFFFFFF81FFFFFFFF805
:1007C0001FFFFFFFF81FFFFFFFF81FFFFFFFF80FDE
:1007D000FFFFFFF00000000000000000000000002C
:1007E0000000000000000000000000000000000009
:1007F00000000000000000000000000003FFFFFFF9
:10080000C007FFFFFFE00FFFFFFFF01FFFFFFFF834
:100810001FFFFFFFF81FFFFFFFF81FFFFFFFF81F7D
:10082000FFFFFFF81FFFFFFFF81FF80000001FF099
:100830000000001FF00000001FF00000001FF0008B
:1008400000001FF00000001FF00000001FF000007B
:10085000001FF00000001FF00000001FF00000006B
:100860001FF00000001FF00000001FF80000001F34
:10087000FFFFFFC01FFFFFFFE01FFFFFFFF01FFF95
:10088000FFFFF81FFFFFFFF81FFFFFFFF81FFFFF2D
:10089000FFF81FFFFFFFF81FFFFFFFF81FF8001F03
:1008A000F81FF0000FF81FF0000FF81FF0000FF80E
:1008B0001FF0000FF81FF0000FF81FF0000FF81FD7
:1008C000F0000FF81FF0000FF81FF0000FF81FF0F6
:1008D000000FF81FF0000FF81FF0000FF81FF000D6
:1008E0000FF81FF8001FF81FFFFFFFF81FFFFFFFA3
:1008F000F81FFFFFFFF81FFFFFFFF81FFFFFFFF8C4
:100900001FFFFFFFF81FFFFFFFF81FFFFFFFF80F9C
:10091000FFFFFFF0000000000000000000000000EA
:1009200000000000000000000000000000000000C7
:1009300000000000000000000000000007FFFFFFB3
:10094000E00FFFFFFFF01FFFFFFFF81FFFFFFFF8A3
:100950001FFFFFFFF81FFFFFFFF81FFFFFFFF81F3C
:10096000FFFFFFF80FFFFFFFF80000000FF8000087
:10097000000FF80000000FF80000000FF800000062
:100980000FF80000000FF80000000FF80000000F43
:10099000F80000000FF80000000FF80000000FF84A
:1009A0000000000FF80000000FF80000000FF80032
:1009B00000000FF80000000FF80000000FF8000022
:1009C000000FF80000000FF80000000FF800000012
:1009D0000FF80000000FF80000000FF80000000FF3
:1009E000F80000000FF80000000FF80000000FF8FA
:1009F0000000000FF80000000FF80000000FF800E2
:100A000000000FF80000000FF80000000FF80000D1
:100A1000000FF80000000FF80000000FF8000000C1
:100A20000FF80000000FF80000000FF80000000FA2
:100A3000F80000000FF80000000FF80000000FF8A9
:100A40000000000FF80000000FF80000000FF80091
:100A500000000FF000000000000000000000000097
:100A60000000000000000000000000000000000086
:100A700000000000000000000000000003FFFFFF76
:100A8000C007FFFFFFE00FFFFFFFF01FFFFFFFF8B2
:100A90001FFFFFFFF81FFFFFFFF81FFFFFFFF81FFB
:100AA000FFFFFFF81FFFFFFFF81FF8001FF81FF000
:100AB000000FF81FF0000FF81FF0000FF81FF000F4
:100AC0000FF81FF0000FF81FF0000FF81FF0000FD5
:100AD000F81FF0000FF81FF0000FF81FF0000FF8DC
:100AE0001FF0000FF81FF0000FF81FF8001FF81F8D
:100AF000FFFFFFF81FFFFFFFF81FFFFFFFF81FFFBB
:100B0000FFFFF81FFFFFFFF81FFFFFFFF81FFFFFAA
:100B1000FFF81FFFFFFFF81FFFFFFFF81FF8001F80
:100B2000F81FF0000FF81FF0000FF81FF0000FF88B
:100B30001FF0000FF81FF0000FF81FF0000FF81F54
:100B4000F0000FF81FF0000FF81FF0000FF81FF073
:100B5000000FF81FF0000FF81FF0000FF81FF00053
:100B60000FF81FF8001FF81FFFFFFFF81FFFFFFF20
:100B7000F81FFFFFFFF81FFFFFFFF81FFFFFFFF841
:100B80001FFFFFFFF81FFFFFFFF81FFFFFFFF80F1A
:100B9000FFFFFFF000000000000000000000000068
:100BA0000000000000000000000000000000000045
:100BB00000000000000000000000000007FFFFFF31
:100BC000E00FFFFFFFF01FFFFFFFF81FFFFFFFF821
:100BD0001FFFFFFFF81FFFFFFFF81FFFFFFFF81FBA
:100BE000FFFFFFF81FFFFFFFF81FF8001FF81FF0BF
:100BF000000FF81FF0000FF81FF0000FF81FF000B3
:100C00000FF81FF0000FF81FF0000FF81FF0000F93
:100C1000F81FF0000FF81FF0000FF81FF0000FF89A
:100C20001FF0000FF81FF0000FF81FF8001FF81F4B
:100C3000FFFFFFF81FFFFFFFF81FFFFFFFF81FFF79
:100C4000FFFFF81FFFFFFFF81FFFFFFFF81FFFFF69
:100C5000FFF81FFFFFFFF80FFFFFFFF80000000F76
:100C6000F80000000FF80000000FF80000000FF877
:100C70000000000FF80000000FF80000000FF8005F
:100C800000000FF80000000FF80000000FF800004F
:100C9000000FF80000000FF80000000FF80000003F
:100CA0000FF80000000FF80FFFFFFFF81FFFFFFF16
:100CB000F81FFFFFFFF81FFFFFFFF81FFFFFFFF800
:100CC0001FFFFFFFF81FFFFFFFF81FFFFFFFF80FD9
:100CD000FFFFFFF000000000000000000000000027
:100CE0000000000000000000800000000140000043
:100CF00000022000000004100000000808000000AE
:100D000010040000002002000000400100000080EC
:100D100000800000000040000000002000000000F3
:100D200010000000000800000000040000000002A5
:100D300000000000010000000000800000000040F2
:100D4000000000002000000000100000000008006B
:100D5000000000040000000002000000000100008C
:100D600080000080004000004000200000200010B3
:100D70000000100008000008000400000400020049
:100D8000000200010000010000800000800040001F
:100D900000400020000020001000001000080000AB
:100DA000080004000004000200000200010000012D
:100DB0000000800000000040000000002000000053
:100DC0000010000000000800000000040000000007
:100DD0000200000000010000000000800000000090
:100DE000400000000020000000001000000000088B
:100DF00000000000040000000002000000000100EC
:100E00000000000080000000004000000000200002
:100E100000000010000000000800000000040000B6
:100E2000000002000000000100000000C068EE2F7A
:100E3000AF6E488000000000C0E0F8E3CC181F232C
:100E4000261848E7F0F8F0C0FFC08100010081C01B
:100E50007EFFFFFFFFFFFF7EEFDFBF0000BFDFEF82
:100E6000EFDFBF00FFFFFFFFC3810000000099DB41
:100E7000C3810000000081C3DB990000000081C332
:100E8000C3810000000081C3003F42918291423F34
:100E90008100000000000081102040FFFF40201072
:100EA000102040FF000000003C4281A18999662487
:100EB0003C4281A181894A3C24669989A181423CB6
:100EC0003C4A8981A181423C0000000000006F6F14
:100ED00000000007000700147F147F1400266B2A0F
:100EE000104333086463324D493650000007000058
:100EF000001C2241000041221C00110A1F0A11108F
:100F0000107C10100000A0600010101010100000E5
:100F100060600040300806013E5149453E00427F76
:100F2000400042615149462241494936080C0A7F36
:100F30000827454545393C4A4949300161190701AF
:100F40003649494936064949291E00006C6C0000A3
:100F500000AC6C0008142241001414141414004155
:100F600022140802015109063E415D5D467C1211C2
:100F7000127C7F494949363E414141227F414141EE
:100F80003E7F494949417F090909013E414151726A
:100F90007F0808087F41417F414121413F01017F96
:100FA000081422417F404040407F0204027F7F06B8
:100FB00008307F3E4141413E7F090909063E4141DB
:100FC000617E7F09192946264949493201017F017D
:100FD000013F4040403F1F2040201F3F4030403FE6
:100FE0006314081463030478040361514945430002
:100FF000007F4100000000000001060830400402AC
:10100000010204808080808001020400002054548A
:1010100054787F4844443838444444283844444849
:101020007F3854545418087E09010218A4A4A478E7
:101030007F0808087000487A4000408080887A7FE6
:101040001010284400417F40007C043804787C0460
:101050000404783844444438FC24242418182424F4
:10106000FC807C08040408485454542000083C4880
:10107000203C4040407C0C3040300C1C6018601C10
:1010800044281028441CA0A0A07C4464544C440074
:10109000083641412040FF402041413608001008F9
:1010A0001810080011241FBECFEFD4E0DEBFCDBF63
:1010B00011E0A0E0B1E0E0E6F8E202C005900D9298
:1010C000A230B107D9F712E0A2E0B1E001C01D9251
:1010D000A031B107E1F70E9485080C942E140C94FE
:1010E000000082E38093800089E18093810084E6A0
:1010F00090E090938700809386000E94D11390E047
:1011000090938B0080938A0008952B9A8AE18A95A8
:10111000F1F71B9B04C081E08093020102C0109292
:1011200002012B980E9409120E94710880E190E050
:101130000E94570A78940E94DB1381708093080103
:101140000E94F1110E94DB110E94E11380FF02C096
:101150000E94310D80E197E220E931E0F9013197F9
:10116000F1F70197D9F780910301882331F50E94A7
:10117000D6138333A1F0843328F4813351F08233C2
:10118000F9F40AC0853389F0853360F08633C1F401
:101190000FC080EA91E00EC08FEC90E00BC087E6B4
:1011A00090E008C083E390E005C082E290E002C0D6
:1011B00080E190E00E94570A03C086E30E94EC138E
:1011C0000E94DB110E94050B18C00E94E60A982FAE
:1011D0008C3749F4809103018823E1F30E94E60AE9
:1011E0000E9445120AC080528F3520F09D3011F0C8
:1011F000983019F4892F0E94DD0E80910301882315
:10120000E1F3E3CF419885E0982F9A95F1F7429862
:101210008A95F1F70E943212429A98B19B6098B970
:1012200008950E94020990E083709070892BC9F3A1
:1012300008950E941109439885E0982F9A95F1F737
:1012400098B1997F98B98A95F1F70E943212429A23
:1012500098B19B6098B908951F93182F0E941109A7
:10126000812F0E941C1285E0982F9A95F1F74098E3
:10127000982F9A95F1F742988A95F1F7429A88B19A
:101280008B6088B91F910895806F862B0E942C096E
:1012900008951F93182F0E941109812F0E941C127C
:1012A000439895E0892F8A95F1F788B18A7F88B9AC
:1012B0009A95F1F7429A88B18B6088B91F91089589
:1012C00080E00E94490980E00E94490982E40E946E
:1012D0002C0984E10E94490980E00E94490983E4C5
:1012E0000E942C0980E80E942C0988E90E942C09A0
:1012F00008950F931F9394E1699F800111248695AF
:1013000086958695080F111D802F0E944909812F0F
:101310000E94490984E20E942C091F910F910895AF
:101320004F925F926F927F928F929F92AF92BF92F5
:10133000CF92DF92EF92FF920F931F93DF93CF93A1
:10134000CDB7DEB728970FB6F894DEBF0FBECDBF7E
:10135000882E962E542E452E5E010894A11CB11C99
:10136000E82EFF2487E0E822FF2498E0C92ED12C44
:10137000CE18DF0889E0682E712C6C0E7D1E882D3A
:10138000692D0E94790981EC0E942C090E9419099B
:10139000082F85EC0E942C090E94190910E00E2CE0
:1013A00002C0000F111F0A94E2F790E00C2C02C05B
:1013B000959587950A94E2F7082BF50101935F0153
:1013C0009394E615F705D9F6852D942D9C01D90146
:1013D00060E001E010E07E010894E11CF11C1C9229
:1013E00030E040E050E0C801042E02C0880F991F91
:1013F0000A94E2F7F701E40FF51F20812823322B2E
:101400004F5F5F4F4830510571F73D936F5F683014
:1014100031F728960FB6F894DEBF0FBECDBFCF913F
:10142000DF911F910F91FF90EF90DF90CF90BF90D1
:10143000AF909F908F907F906F905F904F900895A6
:101440000F931F93182F042F0E947909109517707E
:1014500080910801882319F0002319F405C00023A6
:1014600019F4812F68E002C0812F60E00E944409D6
:101470001F910F910895CF93DF9380E060E00E9469
:101480007909C0E0D0E080910801882311F08FEF46
:1014900001C080E00E94490980EC0E942C0921963D
:1014A0008AE0C030D80779F7DF91CF910895909303
:1014B000C5008093C40082E08093C00088E98093D7
:1014C000C10086E08093C2000895982F8091C000EB
:1014D00085FFFCCF9093C6000895982F9F7082954A
:1014E0008F708A3018F4282F205D02C0282F295CC5
:1014F0008091C00085FFFCCF2093C6009A3010F485
:10150000905D01C0995C8091C00085FFFCCF9093F5
:10151000C6000895282F6AE00E940C14392F291B59
:101520008091C00085FFFCCF822F64E60E940C14DE
:10153000805D8093C6008091C00085FFFCCF822F24
:1015400064E60E940C14892F6AE00E940C14805DEE
:101550008093C6008091C00085FFFCCF305D309342
:10156000C6000895282F90E040E331E320FF07C034
:101570008091C00085FFFCCF3093C60006C08091EB
:10158000C00085FFFCCF4093C6009F5F983011F0EC
:101590002695ECCF0895FC0107C08091C00085FF1F
:1015A000FCCF31969093C60090819923B1F780913A
:1015B000C00085FFFCCF8AE08093C6008091C00008
:1015C00085FFFCCF8DE08093C600089580910301D4
:1015D0008150809303018091060190910701FC01E5
:1015E000E05FFE4FE0810196909307018093060132
:1015F00080910601909107018050914021F4109252
:101600000701109206018E2F089510920301109287
:10161000070110920601109205011092040108952D
:101620001F920F920FB60F9211242F938F939F93B7
:10163000EF93FF93809104019091050180509140B8
:1016400021F41092050110920401809103018F5F33
:101650008093030180910401909105012091C600BF
:10166000FC01E05FFE4F208301969093050180937B
:101670000401FF91EF919F918F912F910F900FBED9
:101680000F901F901895439884EF91E020E931E086
:10169000F9013197F1F70197D9F7439A84EF91E077
:1016A00020E931E0F9013197F1F70197D9F7089571
:1016B0008AE1982F9A95F1F7409A982F9A95F1F729
:1016C00040988A95F1F7089588B1866388B9409863
:1016D00008951F93803410F4449801C0459815E391
:1016E000812F8A95F1F7409A812F8A95F1F74098DA
:1016F000812F8A95F1F7409A812F8A95F1F70E9400
:10170000321240981A95F1F798B1966398B94098BB
:101710001F91089598B1997F98B98770886B0E943E
:101720001C120E94580B0E943E1288B1866388B931
:10173000409808959F92AF92BF92CF92DF92EF921E
:10174000FF920F931F93CF93DF93982E142F052FA3
:1017500027E0F22EF62298E0B92EBF18A62EA69406
:10176000A694A6948A2D0E948A0B212F302FC9019E
:101770006C01EC01EE2408E010E00F1911098E2D28
:10178000890D0E94690B90E0002E02C0880F991FFE
:101790000A94E2F78993E39488E0E81681F78A2DAA
:1017A0008F5F0E948A0BC0E0D0E088E0E82EF12C29
:1017B000EB18F108F6011081892D8C0F0E94690B3E
:1017C00090E00E2C02C0959587950A94E2F7182BAD
:1017D000F60111936F012196C830D10559F7DF91B9
:1017E000CF911F910F91FF90EF90DF90CF90BF901E
:1017F000AF909F90089598B1997F98B9809309010F
:101800008F7380640E941C120E94580B0E943E122B
:1018100088B1866388B940980895982F809109010E
:10182000803418F488B18B7E02C088B18B7D88B972
:10183000892F0E941C120E94580B0E943E1288B1F0
:10184000866388B94098809109018F5F8093090170
:1018500087FF05C01092090180E00E94FB0B0895EC
:10186000FF920F931F93082F162FF42E0E94FB0B4D
:10187000812F8695869586950E948A0B802F0E94DF
:10188000690B282F177080910801882319F4FF2015
:1018900071F403C081E0F81651F481E090E002C0D9
:1018A000880F991F1A95E2F7122F182B0AC081E0B2
:1018B00090E002C0880F991F1A95E2F7182F109533
:1018C0001223802F0E94FB0B812F0E940D0C1F9171
:1018D0000F91FF900895FF920F931F93809108013D
:1018E000813019F4FF24FA9401C0FF2400E0802F16
:1018F0000E948A0B80E00E94FB0B10E08F2D0E945B
:101900000D0C1F5F1038D1F70F5F083081F780E0B2
:101910000E948A0B80E00E94FB0B1F910F91FF90A9
:10192000089588B1897C88B980EC0E941C120E94BD
:10193000580B0E943E1288B1866388B9409808957A
:1019400088B1897F88B98FE30E941C120E94580BCE
:101950000E943E1288B1866388B940980895982FF6
:1019600080910201882321F4892F0E949A0B089507
:10197000892F0E9490090895982F80910201882351
:1019800061F4809100019817A8F480910101681713
:1019900088F4892F0E94300C0895813059F4809189
:1019A0000001981738F480910101681718F4892F05
:1019B0000E94200A08959F92AF92BF92CF92DF9229
:1019C000EF92FF920F931F93CF93DF93982ED62E13
:1019D00050E080E491E0489FE001499FD00D589F7E
:1019E000D00D1124C859DF4FAA242BC0F801E49070
:1019F000FF2480910801882329F48F2D8C0DE7FEA8
:101A000005C007C08F2D8C0DE7FE03C06D2D41E092
:101A100002C06D2D40E00E94BC0CF394F8E0FF166C
:101A200011F0EE0CE6CFB3940F5F1F4F88E0C80EA5
:101A3000E5E0BE16D9F6A394D3942596F0E4AF164C
:101A400021F08E01C92CBB24D1CFDF91CF911F9102
:101A50000F91FF90EF90DF90CF90BF90AF909F904D
:101A60000895CF92DF92EF92FF920F931F93CF933F
:101A7000DF930091000106950850D0900101D694A3
:101A800098EFC92ECD0CC8E2DEE0F02EFE01E49006
:101A90001C2D80910801882319F4E0FE03C006C0C4
:101AA000E0FE04C08F2D612F41E003C08F2D612F18
:101AB00040E00E94BC0C1F5F1D1511F0E694E9CFB9
:101AC0002196F394FEE0C833DF0701F788E0E82EA3
:101AD000ED0CFE01F4901D2D80910801882319F46E
:101AE000F0FE03C006C0F0FE04C0802F612F41E06D
:101AF00003C0802F612F40E00E94BC0C1F5F1E15A9
:101B000011F0F694E9CF21960F5FFEE0C834DF07AD
:101B100001F7DF91CF911F910F91FF90EF90DF9030
:101B2000CF900895DF92EF92FF920F931F93D82EDC
:101B3000E42EF22E481710F4ED2CD42EF61618F4DD
:101B40008F2DF62E682F062F09C0812F602F41E0C0
:101B50000E94BC0C1F5FE116C0F70F5FF01610F07B
:101B60001D2DF9CF1F910F91FF90EF90DF900895F9
:101B70007F928F929F92AF92BF92CF92DF92EF921D
:101B8000FF920F931F93DF93CF93CDB7DEB72897C4
:101B90000FB6F894DEBF0FBECDBFC82EB62ED22E24
:101BA000702EE42EFF24A3E0EE0CFF1CAA95E1F7B3
:101BB0008E010F5F1F4FA8010E94AF0CB701685B39
:101BC000714F97012857314FA7017801DA01189614
:101BD00019C080910801882321F0F7018081809548
:101BE0008083FB018491F70190818923F90194910D
:101BF000892BF70181937F014F5F5F4F6F5F7F4FAD
:101C00002F5F3F4F4A175B0720F3F3E3DF1609F41A
:101C100073C0FD1528F080E3D81609F0BAC03EC0A5
:101C2000E6E3DE1691F0F9E3DF1609F0B2C0F7E063
:101C3000EF2EEB0CE7E0AE2EAC0CBC2CBA9479E0A6
:101C4000C72ED12CCC0EDD1EA2C067E0E62EEC0C18
:101C500059E0852E912C8C0E9D1E77C0F801808155
:101C6000772019F480FF03C006C080FF04C08C2DCC
:101C70006F2D41E003C08C2D6F2D40E00E94BC0C05
:101C8000F801808186958083FA94FE1439F70F5FFE
:101C90001F4FC3940A151B0559F47BC047E0D42E8F
:101CA000DB0CEB2CEA9439E0A32EB12CAC0EBD1E5C
:101CB000FD2CD4CFF8018081772019F480FF03C078
:101CC00006C080FF04C08F2D6B2D41E003C08F2D17
:101CD0006B2D40E00E94BC0CF801808186958083CA
:101CE000E394F394F8E0EF1629F70F5F1F4FB394D6
:101CF0000815190531F44DC029E0822E912C8C0E67
:101D00009D1EFC2CEE24D6CFF8018081772019F49B
:101D100080FF03C006C080FF04C08E2D6F2D41E000
:101D200003C08E2D6F2D40E00E94BC0CF801808115
:101D300086958083D394F394F8E0DF1629F70F5F3C
:101D40001F4FEA940815190521F1FB2CDD24DCCF87
:101D5000F8018081772019F480FF03C006C080FF5E
:101D600004C08F2D6E2D41E003C08F2D6E2D40E0FD
:101D70000E94BC0CF801808186958083FA94FB1444
:101D800039F70F5F1F4FEA940C151D0511F0FA2C5F
:101D9000DFCF28960FB6F894DEBF0FBECDBFCF9130
:101DA000DF911F910F91FF90EF90DF90CF90BF9048
:101DB000AF909F908F907F900895EF92FF920F9336
:101DC0001F93CF93DF93F82E88E0F816A9F1EDE08A
:101DD000FE1609F09DC080910001482F50E045504B
:101DE000504020910E0130910F0160910A01862F21
:101DF00090E06A5F722FE32F2F5F3F4F84179507A4
:101E0000B4F370930E01E0930F0180910C01809365
:101E10000A0120910B01285F20930B0130E0809193
:101E2000010190E00797281739070CF471C08091E1
:101E30000D0180930B016CC080910E0190910F01F8
:101E4000009709F465C0019790930F0180930E01EC
:101E500050910A0180910C015817C1F540910B0176
:101E600080910D01481701F580910101282F30E084
:101E700028503040642F685F842F90E082179307CA
:101E800014F4462FF7CF40930B0180910001282FC7
:101E900030E025503040452F4A5F852F90E0821773
:101EA0009307A4F4542FF7CF485040930B0180912F
:101EB0000001282F30E025503040452F4A5F852F04
:101EC00090E08217930714F4542FF7CF5650509395
:101ED0000A0100910A0113C010910B0106C0802F66
:101EE000612F41E00E94BC0C1F5F80910B0190E0CC
:101EF0000796212F30E0821793078CF70F5F8091B0
:101F00000A0190E00496202F30E08217930724F70F
:101F10008F2D80528F3508F06CC02F2D30E020526D
:101F2000304080910E0190910F01019690930F0126
:101F300080930E0100910A01E901CC0FDD1FCC0F47
:101F4000DD1FC20FD31FC853D14F28C0FE0184919B
:101F500010910B01E82EFF2414C0241B350BC70180
:101F600002C0959587952A95E2F780FF04C0802FDF
:101F7000612F40E003C0802F612F41E00E94BC0C24
:101F80001F5F80910B01482F50E0212F30E0CA01E4
:101F90000796821793070CF70F5F219640910A016D
:101FA000842F90E00496202F30E08217930774F678
:101FB000242F2A5F20930A0130E08091000190E0F5
:101FC000069728173907ACF080910C0180930A011D
:101FD00020910B01285F20930B0130E080910101DB
:101FE00090E007972817390724F080910D0180931E
:101FF0000B01DF91CF911F910F91FF90EF9008950A
:102000002F923F924F925F926F927F928F929F9208
:10201000AF92BF92CF92DF92EF92FF920F931F93F6
:10202000DF93CF9300D00F92CDB7DEB7982E862ED8
:10203000242E3324C101880F991F21E030E0281B92
:10204000390B3B832A834424552466247724520188
:10205000AA0CBB1C322D390D3983E42CE80C832FDC
:102060006E2D40E00E94BC0CC42CC90CD22CD80CA4
:102070008C2D6D2D40E00E94BC0CF92CF2188F2D98
:102080006E2D40E00E94BC0CE92CE4188E2D6D2DC5
:1020900040E00E94BC0CD82CD4188F2D6D2D40E050
:1020A0000E94BC0C182D12198E2D612F40E00E9449
:1020B000BC0C89816D2D40E00E94BC0C8C2D612FE1
:1020C00040E00E94BC0C0894411C511C6A0C7B1C13
:1020D000C301880F991FEA81FB818E0F9F1F18167D
:1020E000190644F40894210831086E0E7F1E3296BA
:1020F000FB83EA83241435040CF0A9CF0F900F90D2
:102100000F90CF91DF911F910F91FF90EF90DF9093
:10211000CF90BF90AF909F908F907F906F905F9087
:102120004F903F902F9008952F923F924F925F9241
:102130006F927F928F929F92AF92BF92CF92DF92D7
:10214000EF92FF920F931F93DF93CF9300D000D0B5
:10215000CDB7DEB7682E762E481728F4722E262FBC
:10216000842F462D682E6416E1F4271518F4872D68
:10217000722E282FCC24DD24E72CFF24022F10E020
:1021800009C0672D6C0D862D40E00E94BC0C0894A0
:10219000C11CD11CC6018E0D9F1D081719078CF795
:1021A000CDC07216B9F4CC24DD24E62CFF24042F14
:1021B00010E009C0862D8C0D672D40E00E94BC0CFC
:1021C0000894C11CD11CC6018E0D9F1D081719074C
:1021D0008CF7B4C0222E3324C72CDD2491012C1996
:1021E0003D09442E5524E62CFF24A2014E195F0917
:1021F0004901880C991C5A01AA0CBB1C37FD4CC024
:10220000C4018A199B099C838B834217530714F1DD
:102210005401A41AB50A00E010E015C0862D800F05
:102220006C2D40E00E94BC0C1A141B041CF0A80C7E
:10223000B91C07C00894C11CD11CEB81FC81AE0EF7
:10224000BF1E0F5F1F4FC8018E0D9F1D48165906F8
:102250002CF774C04501821A930A00E010E015C003
:10226000672D600F8E2D40E00E94BC0C18141904DD
:102270001CF08A0C9B1C07C00894E11CF11C8B818C
:102280009C81881A990A0F5F1F4FC8018C0D9D1DF4
:10229000281639062CF752C0F501E80DF91DFA830E
:1022A000E98388279927821B930B481759072CF13C
:1022B000AA24BB24A818B908A41AB50A00E010E0A3
:1022C00015C0862D800F6C2D40E00E94BC0C1A14A6
:1022D0001B041CF0A818B90807C00894C108D1084D
:1022E00089819A81A81AB90A0F5F1F4FC8018E0D04
:1022F0009F1D481659062CF721C04501820E931EDA
:1023000000E010E015C0672D601B8E2D40E00E949C
:10231000BC0C181419041CF08A0C9B1C07C00894F0
:10232000E11CF11CE981FA818E0E9F1E0F5F1F4F89
:10233000C601801B910B821593052CF70F900F900F
:102340000F900F90CF91DF911F910F91FF90EF9021
:10235000DF90CF90BF90AF909F908F907F906F90C5
:102360005F904F903F902F900895CF92DF92EF9221
:10237000FF920F931F93182FC62EE42EF22E412F9B
:102380000E949410812F6C2D4E2D2C2D0E949410A4
:102390008E2D6F2D412F2F2D0E9494108E2D6F2D7D
:1023A0004E2D2C2D0E9494101F910F91FF90EF90B5
:1023B000DF90CF90089580910C0180930A01809165
:1023C0000D0180930B0110920F0110920E0180916C
:1023D0000201882319F40E946B0C08950E943B0AA5
:1023E000089580910201882359F40E94430B0E94B2
:1023F000A00C0E946B0C80E88093000180E406C072
:102400000E94600980EA8093000180E880930101C6
:1024100008958FE084B98CEF8AB92A9880910201DF
:10242000882321F48FE387B988B90895813019F49E
:102430008FE387B988B9089594B1936094B99AB13C
:102440009C6F9AB995B19C7F95B99BB193709BB9DC
:1024500025B1982F9370922B95B99BB18C7F982BB7
:102460009BB9089584B18C7F84B98AB183708AB98D
:1024700093B189B18C7F9370892B089584B18C7F3F
:1024800084B98AB183708AB90895EF92FF920F934D
:10249000DF93CF9300D000D00F92CDB7DEB78B3053
:1024A00009F457C18C30A8F4833009F4FEC084309D
:1024B00038F4882309F445C0823009F067C147C069
:1024C000853009F42DC18530E0F0873009F05EC118
:1024D00053C0823171F1833150F48F3009F402C15D
:1024E000803109F4A8C08C3009F050C1C0C08831D7
:1024F00009F471C0893109F484C0833109F046C1FF
:1025000023C000E07E010894E11CF11C80910301CE
:10251000882339F00E94E60AF701E00FF11D80835D
:102520000F5F033098F389816A814B810E94DB0C35
:102530002DC18091080191E08927809308010E94B4
:10254000F5130E94DB1122C10E9401141FC180916A
:1025500003018823E1F30E94E60A8983853610F09F
:1025600084E689838981282F30E030938B00209383
:102570008A000E94E6130AC1809103018823E1F3D7
:102580000E94E60A082F0E94EC130333C1F00433C3
:1025900030F4013361F0023309F0F8C00BC00533A9
:1025A000A1F0053378F0063309F0F0C011C080EADD
:1025B00091E002C08FEC90E00E94570AE7C087E6E6
:1025C00090E0FACF83E390E0F7CF82E290E0F4CF9F
:1025D00080E190E0F1CF809103018823E1F30E9434
:1025E000E60A482F8091000190E00597242F30E003
:1025F000281739070CF0CAC040930C0140930A0118
:1026000015C0809103018823E1F30E94E60A482F58
:102610008091010190E00797242F30E028173907B7
:102620000CF0B4C040930D0140930B0110920F01C8
:1026300010920E01ABC000E07E010894E11CF11C79
:1026400080910301882339F00E94E60AF701E00F28
:10265000F11D80830F5F033098F340E08B81882366
:1026600009F441E089816A810E94BC0C8FC000E0BE
:102670007E010894E11CF11C80910301882339F04C
:102680000E94E60AF701E00FF11D80830F5F05301D
:1026900098F300E08D81882309F401E089816A8143
:1026A0004B812C810E94941071C000E07E0108943F
:1026B000E11CF11C80910301882339F00E94E60A95
:1026C000F701E00FF11D80830F5F043098F320E0E5
:1026D0008C81882309F421E089816A814B810E94E1
:1026E000001054C000E07E010894E11CF11C8091B0
:1026F0000301882339F00E94E60AF701E00FF11D7B
:1027000080830F5F053098F300E08D81882309F402
:1027100001E089816A814B812C810E94B51136C00C
:1027200000E07E010894E11CF11C809103018823E4
:1027300039F00E94E60AF701E00FF11D80830F5F78
:10274000043098F389816A814B812C810E94920D1B
:102750001DC000E07E010894E11CF11C8091030182
:10276000882339F00E94E60AF701E00FF11D80830B
:102770000F5F053098F300E08D81882309F401E0B4
:1027800089816A814B812C810E94B80D0F900F9036
:102790000F900F900F90CF91DF910F91FF90EF90DE
:1027A000089583E090E00E941814089582E090E07C
:1027B0000E941814089581E090E00E9418148095FA
:1027C000089580E090E00E9418140895682F83E037
:1027D00090E00E9420140895682F8153863020F4E1
:1027E00082E090E00E942014089581E090E00E9431
:1027F0001814682F6095617081E090E00E942014A9
:10280000089580E090E00E94181461E0682780E05D
:1028100090E00E9420140895991B79E004C0991F4C
:10282000961708F0961B881F7A95C9F7809508952A
:10283000F999FECF92BD81BDF89A992780B5089588
:10284000262FF999FECF1FBA92BD81BD20BD0FB6CC
:10285000F894FA9AF99A0FBE01960895F894FFCF6A
:022860008040B6
:00000001FF
