:100000000C9434080C9451080C9451080C94510829
:100010000C9451080C9451080C9451080C945108FC
:100020000C9451080C9451080C9451080C945108EC
:100030000C9451080C9451080C9451080C945108DC
:100040000C9451080C9451080C94540A0C945108C7
:100050000C9451080C9451080C9451080C945108BC
:100060000C9451080C9451084211B61258111A12EE
:10007000B4125D12B6127511B612B612B6127F1214
:10008000FC11B612B6123F12D811B6123A114D1128
:10009000B612B612B612B612A811BE1100000000B8
:1000A0000000000000000000000000000000000050
:1000B00007FFFFFFE00FFFFFFFF01FFFFFFFF81F2D
:1000C000FFFFFFF81FFFFFFFF81FFFFFFFF81FFFF5
:1000D000FFFFF81FFFFFFFF81FE00007F81FE00019
:1000E00007F81FE00007F81FE00007F81FE000070F
:1000F000F81FE00007F81FE00007F81FE00007F80E
:100100001FE00007F81FE00007F81FE00007F81FD6
:10011000E00007F81FE00007F81FE00007F81FE005
:100120000007F81FE00007F81FE00007F81FE000D5
:1001300007F81FE00007F81FE00007F81FE00007BE
:10014000F81FE00007F81FE00007F81FE00007F8BD
:100150001FE00007F81FE00007F81FE00007F81F86
:10016000E00007F81FE00007F81FE00007F81FE0B5
:100170000007F81FE00007F81FE00007F81FE00085
:1001800007F81FE00007F81FE00007F81FE000076E
:10019000F81FE00007F81FE00007F81FE00007F86D
:1001A0001FFFFFFFF81FFFFFFFF81FFFFFFFF81FF4
:1001B000FFFFFFF81FFFFFFFF81FFFFFFFF80FFF14
:1001C000FFFFF007FFFFFFE000000000000000005D
:1001D000000000000000000000000000000000001F
:1001E000000000000000000000000000000000000F
:1001F00000003F80000000FFC0000001FFC00000C1
:1002000007FFC000001FFFC000003FFFC00000FF4D
:10021000FFC00001FFFFC00001FFFFC00001FFFFA2
:10022000C00001FFFFC00001FFFFC00001FFFFC0D1
:100230000001FFFFC0000000FFC0000000FFC00081
:100240000000FFC0000000FFC0000000FFC0000071
:1002500000FFC0000000FFC0000000FFC000000061
:10026000FFC0000000FFC0000000FFC0000000FF52
:10027000C0000000FFC0000000FFC0000000FFC081
:10028000000000FFC0000000FFC0000000FFC00031
:100290000000FFC0000000FFC0000000FFC0000021
:1002A00000FFC0000000FFC0000000FFC000000011
:1002B000FFC0000000FFC0000000FFC0000000FF02
:1002C000C0000000FFC0000000FFC0000000FFC031
:1002D000000000FFC0000000FFC0000000FFC000E1
:1002E0000000FFC0000000FFC0000000FFC00000D1
:1002F00000FFC0000000FFC0000000FFC0000000C1
:10030000FFC0000000FFC00000000000000000006F
:1003100000000000000000000000000000000000DD
:1003200000000000000000000000000000000000CD
:1003300003FFFFFFE007FFFFFFF00FFFFFFFF81FC6
:10034000FFFFFFF81FFFFFFFF81FFFFFFFF81FFF72
:10035000FFFFF81FFFFFFFF81FFFFFFFF80000007F
:100360001FF80000000FF80000000FF80000000F59
:10037000F80000000FF80000000FF80000000FF870
:100380000000000FF80000000FF80000000FF80058
:1003900000000FF80000000FF80000000FF8000048
:1003A000000FF80000001FF807FFFFFFF80FFFFF26
:1003B000FFF81FFFFFFFF81FFFFFFFF81FFFFFFF02
:1003C000F81FFFFFFFF81FFFFFFFF81FFFFFFFF001
:1003D0001FFFFFFFE01FF00000001FE00000001FF4
:1003E000E00000001FE00000001FE00000001FE030
:1003F0000000001FE00000001FE00000001FE00000
:1004000000001FE00000001FE00000001FE00000EF
:10041000001FE00000001FF00000001FFFFFFFF8BA
:100420001FFFFFFFF81FFFFFFFF81FFFFFFFF81F71
:10043000FFFFFFF81FFFFFFFF81FFFFFFFF81FFF81
:10044000FFFFF81FFFFFFFF80000000000000000A2
:10045000000000000000000000000000000000009C
:10046000000000000000000000000000000000008C
:1004700007FFFFFFE00FFFFFFFF01FFFFFFFF81F69
:10048000FFFFFFF81FFFFFFFF81FFFFFFFF81FFF31
:10049000FFFFF81FFFFFFFF80FFFFFFFF80000004E
:1004A0000FF80000000FF80000000FF80000000F28
:1004B000F80000000FF80000000FF80000000FF82F
:1004C0000000000FF80000000FF80000000FF80017
:1004D00000000FF80000000FF80000000FF8000007
:1004E000000FF8003FFFFFF8003FFFFFF8003FFF5D
:1004F000FFF8003FFFFFF8003FFFFFF8003FFFFF5E
:10050000F8003FFFFFF8003FFFFFF8003FFFFFF854
:100510000000000FF80000000FF80000000FF800C6
:1005200000000FF80000000FF80000000FF80000B6
:10053000000FF80000000FF80000000FF8000000A6
:100540000FF80000000FF80000000FF80000000F87
:10055000F80000000FF80000000FF80FFFFFFFF891
:100560001FFFFFFFF81FFFFFFFF81FFFFFFFF81F30
:10057000FFFFFFF81FFFFFFFF81FFFFFFFF81FFF40
:10058000FFFFF80FFFFFFFF0000000000000000079
:10059000000000000000000000000000000000005B
:1005A000000000000000000000000000000000004B
:1005B00007F0000FE00FF0000FF01FF0000FF81F22
:1005C000F0000FF81FF0000FF81FF0000FF81FF0F9
:1005D000000FF81FF0000FF81FF0000FF81FF000D9
:1005E0000FF81FF0000FF81FF0000FF81FF0000FBA
:1005F000F81FF0000FF81FF0000FF81FF0000FF8C1
:100600001FF0000FF81FF0000FF81FF0000FF81F89
:10061000F0000FF81FF0000FF81FF0000FF81FF0A8
:10062000000FF81FFFFFFFF81FFFFFFFF81FFFFF7E
:10063000FFF81FFFFFFFF81FFFFFFFF81FFFFFFF7F
:10064000F81FFFFFFFF81FFFFFFFF81FFFFFFFF876
:100650000000000FF80000000FF80000000FF80085
:1006600000000FF80000000FF80000000FF8000075
:10067000000FF80000000FF80000000FF800000065
:100680000FF80000000FF80000000FF80000000F46
:10069000F80000000FF80000000FF80000000FF84D
:1006A0000000000FF80000000FF80000000FF80035
:1006B00000000FF80000000FF80000000FF8000025
:1006C000000FF80000000FF0000000000000000024
:1006D000000000000000000000000000000000001A
:1006E000000000000000000000000000000000000A
:1006F00003FFFFFFC007FFFFFFE00FFFFFFFF01F3B
:10070000FFFFFFF81FFFFFFFF81FFFFFFFF81FFFAE
:10071000FFFFF81FFFFFFFF81FFFFFFFF81FF800A4
:1007200000001FF00000001FF00000001FF000009C
:10073000001FF00000001FF00000001FF00000008C
:100740001FF00000001FF00000001FF00000001F5D
:10075000F00000001FF00000001FF00000001FF874
:100760000000001FFFFFFFC01FFFFFFFE01FFFFF94
:10077000FFF01FFFFFFFF81FFFFFFFF81FFFFFFF46
:10078000F81FFFFFFFF81FFFFFFFF81FFFFFFFF835
:100790000000001FF80000000FF80000000FF80034
:1007A00000000FF80000000FF80000000FF8000034
:1007B000000FF80000000FF80000000FF800000024
:1007C0000FF80000000FF80000000FF80000000F05
:1007D000F80000000FF80000001FF80FFFFFFFF8FF
:1007E0001FFFFFFFF81FFFFFFFF81FFFFFFFF81FAE
:1007F000FFFFFFF81FFFFFFFF81FFFFFFFF81FFFBE
:10080000FFFFF80FFFFFFFF00000000000000000F6
:1008100000000000000000000000000000000000D8
:1008200000000000000000000000000000000000C8
:1008300003FFFFFFC007FFFFFFE00FFFFFFFF01FF9
:10084000FFFFFFF81FFFFFFFF81FFFFFFFF81FFF6D
:10085000FFFFF81FFFFFFFF81FFFFFFFF81FF80063
:1008600000001FF00000001FF00000001FF000005B
:10087000001FF00000001FF00000001FF00000004B
:100880001FF00000001FF00000001FF00000001F1C
:10089000F00000001FF00000001FF00000001FF833
:1008A0000000001FFFFFFFC01FFFFFFFE01FFFFF53
:1008B000FFF01FFFFFFFF81FFFFFFFF81FFFFFFF05
:1008C000F81FFFFFFFF81FFFFFFFF81FFFFFFFF8F4
:1008D0001FF8001FF81FF0000FF81FF0000FF81F9F
:1008E000F0000FF81FF0000FF81FF0000FF81FF0D6
:1008F000000FF81FF0000FF81FF0000FF81FF000B6
:100900000FF81FF0000FF81FF0000FF81FF0000F96
:10091000F81FF0000FF81FF8001FF81FFFFFFFF887
:100920001FFFFFFFF81FFFFFFFF81FFFFFFFF81F6C
:10093000FFFFFFF81FFFFFFFF81FFFFFFFF81FFF7C
:10094000FFFFF80FFFFFFFF00000000000000000B5
:100950000000000000000000000000000000000097
:100960000000000000000000000000000000000087
:1009700007FFFFFFE00FFFFFFFF01FFFFFFFF81F64
:10098000FFFFFFF81FFFFFFFF81FFFFFFFF81FFF2C
:10099000FFFFF81FFFFFFFF80FFFFFFFF800000049
:1009A0000FF80000000FF80000000FF80000000F23
:1009B000F80000000FF80000000FF80000000FF82A
:1009C0000000000FF80000000FF80000000FF80012
:1009D00000000FF80000000FF80000000FF8000002
:1009E000000FF80000000FF80000000FF8000000F2
:1009F0000FF80000000FF80000000FF80000000FD3
:100A0000F80000000FF80000000FF80000000FF8D9
:100A10000000000FF80000000FF80000000FF800C1
:100A200000000FF80000000FF80000000FF80000B1
:100A3000000FF80000000FF80000000FF8000000A1
:100A40000FF80000000FF80000000FF80000000F82
:100A5000F80000000FF80000000FF80000000FF889
:100A60000000000FF80000000FF80000000FF80071
:100A700000000FF80000000FF80000000FF8000061
:100A8000000FF80000000FF0000000000000000060
:100A90000000000000000000000000000000000056
:100AA0000000000000000000000000000000000046
:100AB00003FFFFFFC007FFFFFFE00FFFFFFFF01F77
:100AC000FFFFFFF81FFFFFFFF81FFFFFFFF81FFFEB
:100AD000FFFFF81FFFFFFFF81FFFFFFFF81FF800E1
:100AE0001FF81FF0000FF81FF0000FF81FF0000FA5
:100AF000F81FF0000FF81FF0000FF81FF0000FF8BC
:100B00001FF0000FF81FF0000FF81FF0000FF81F84
:100B1000F0000FF81FF0000FF81FF0000FF81FF89B
:100B2000001FF81FFFFFFFF81FFFFFFFF81FFFFF69
:100B3000FFF81FFFFFFFF81FFFFFFFF81FFFFFFF7A
:100B4000F81FFFFFFFF81FFFFFFFF81FFFFFFFF871
:100B50001FF8001FF81FF0000FF81FF0000FF81F1C
:100B6000F0000FF81FF0000FF81FF0000FF81FF053
:100B7000000FF81FF0000FF81FF0000FF81FF00033
:100B80000FF81FF0000FF81FF0000FF81FF0000F14
:100B9000F81FF0000FF81FF8001FF81FFFFFFFF805
:100BA0001FFFFFFFF81FFFFFFFF81FFFFFFFF81FEA
:100BB000FFFFFFF81FFFFFFFF81FFFFFFFF81FFFFA
:100BC000FFFFF80FFFFFFFF0000000000000000033
:100BD0000000000000000000000000000000000015
:100BE0000000000000000000000000000000000005
:100BF00007FFFFFFE00FFFFFFFF01FFFFFFFF81FE2
:100C0000FFFFFFF81FFFFFFFF81FFFFFFFF81FFFA9
:100C1000FFFFF81FFFFFFFF81FFFFFFFF81FF8009F
:100C20001FF81FF0000FF81FF0000FF81FF0000F63
:100C3000F81FF0000FF81FF0000FF81FF0000FF87A
:100C40001FF0000FF81FF0000FF81FF0000FF81F43
:100C5000F0000FF81FF0000FF81FF0000FF81FF85A
:100C6000001FF81FFFFFFFF81FFFFFFFF81FFFFF28
:100C7000FFF81FFFFFFFF81FFFFFFFF81FFFFFFF39
:100C8000F81FFFFFFFF81FFFFFFFF80FFFFFFFF840
:100C90000000000FF80000000FF80000000FF8003F
:100CA00000000FF80000000FF80000000FF800002F
:100CB000000FF80000000FF80000000FF80000001F
:100CC0000FF80000000FF80000000FF80000000F00
:100CD000F80000000FF80000000FF80FFFFFFFF80A
:100CE0001FFFFFFFF81FFFFFFFF81FFFFFFFF81FA9
:100CF000FFFFFFF81FFFFFFFF81FFFFFFFF81FFFB9
:100D0000FFFFF80FFFFFFFF00000000000000000F1
:100D1000000000000000000000000000FFC0810093
:100D2000010081C07EFFFFFFFFFFFF7EEFDFBF00FE
:100D300000BFDFEFEFDFBF00FFFFFFFFC381000059
:100D4000000099DBC3810000000081C3DB99000033
:100D5000000081C3C3810000000081C3003F4291B5
:100D60008291423F8100000000000081102040FF7E
:100D7000FF402010102040FF000000003C4281A1F5
:100D8000899966243C4281A181894A3C24669989DB
:100D9000A181423C3C4A8981A181423C80C0400CF7
:100DA0003EFEF2E0F0E0FF7F3F1F1F1F1F0F070313
:100DB0000000000000006F6F000000070007001433
:100DC0007F147F1400266B2A104333086463324D6E
:100DD0004936500000070000001C2241000041225B
:100DE0001C00110A1F0A1110107C10100000A060D6
:100DF0000010101010100000606000403008060164
:100E00003E5149453E00427F4000426151494622E1
:100E100041494936080C0A7F0827454545393C4A6F
:100E2000494930016119070136494949360649499E
:100E3000291E00006C6C000000AC6C0008142241FC
:100E4000001414141414004122140802015109065C
:100E50003E415D5D467C1211127C7F494949363E18
:100E6000414141227F4141413E7F494949417F09FA
:100E70000909013E414151727F0808087F41417FC5
:100E8000414121413F01017F081422417F40404000
:100E9000407F0204027F7F0608307F3E4141413E91
:100EA0007F090909063E4141617E7F0919294626CD
:100EB0004949493201017F01013F4040403F1F2025
:100EC00040201F3F4030403F631408146303047800
:100ED0000403615149454300007F410000000000C8
:100EE00000010608304004020102048080808080F6
:100EF000010204000020545454787F484444383898
:100F000044444428384444487F3854545418087E94
:100F100009010218A4A4A4787F0808087000487A80
:100F20004000408080887A7F1010284400417F4034
:100F3000007C043804787C04040478384444443841
:100F4000FC24242418182424FC807C080404084869
:100F50005454542000083C48203C4040407C0C3015
:100F600040300C1C6018601C44281028441CA0A0B1
:100F7000A07C4464544C4400083641412040FF406A
:100F800020414136080010081810084F1031100792
:100F900010E70FCC0F970F556E646572207468656B
:100FA0002063697263756D7374616E6365732C2061
:100FB00049277665206265656E2053484F434B494B
:100FC0004E474C59206E6963652E00004578636575
:100FD00070742049207761736E2774206C61756787
:100FE00068696E672E00004F6820686F772077650C
:100FF000206C61756768656420616E64206C617542
:101000006768656421000052656D656D62657220D8
:10101000686F7720796F7520747269656420746FCA
:10102000206B696C6C206D652074776963653F0087
:10103000004974277320616C77617973207375633D
:1010400068206120706C6561737572652E000057B1
:10105000656C6C206865726520776520617265201B
:10106000616761696E2E000011241FBECFEFD4E0CE
:10107000DEBFCDBF11E0A0E0B1E0E0E3F9E202C0E5
:1010800005900D92A230B107D9F722E0A2E0B1E0BD
:1010900001C01D92A031B207E1F70E94F5130C9434
:1010A00096140C94000082E38093800089E1809381
:1010B000810084E690E090938700809386000E94F0
:1010C000F21290E090938B0080938A0008954198EB
:1010D00085E08A95F1F70000429885E08A95F1F75E
:1010E00000000E941411429A98B19B6098B908952B
:1010F0000E9467088370E1F30895CF93DF931F92F6
:10110000CDB7DEB789830E94780889810E94FE10DE
:10111000439885E08A95F1F7000088B18A7F88B905
:10112000E5E0EA95F1F70000429A88B18B6088B952
:101130000F90DF91CF9108950E947808439885E041
:101140008A95F1F7000088B1897F88B985E08A9592
:10115000F1F700000E941411429A98B19B6098B96F
:101160000895CF93DF931F92CDB7DEB789830E9496
:10117000780889810E94FE1085E08A95F1F70000C9
:101180004098E5E0EA95F1F700004298F5E0FA951D
:10119000F1F70000429A88B18B6088B90F90DF9117
:1011A000CF910895CF93DF93869586958695C82F26
:1011B000D0E084E1689FC00DD11D11248C2F0E94C6
:1011C0007D088D2F0E947D0884E2DF91CF910C94E1
:1011D000B108CF93DF9360E080E00E94D208C0E0C6
:1011E000DAE080910201882311F08FEF01C080E0E6
:1011F0000E947D0880EC0E94B1082197209789F712
:10120000DF91CF91089580E00E947D0880E00E94E8
:101210007D0882E40E94B10884E10E947D0880E09C
:101220000E947D0883E40E94B10880E80E94B10812
:1012300088E90C94B108806F862B0C94B1081F9339
:10124000CF93DF931F92CDB7DEB7182F49830E944B
:10125000D208812F8095877090910201498199234E
:1012600019F0411103C004C0411102C0886F01C0D0
:10127000806F0F90DF91CF911F910C94B1089F92D6
:10128000AF92BF92CF92DF92EF92FF920F931F9394
:10129000CF93DF93CDB7DEB72A970FB6F894DEBFB2
:1012A0000FBECDBFC82EA62ECE0101967C01D12C3B
:1012B0009C2D9770B92E08E010E0091B11096D2DC7
:1012C0006A0D8C2D49875A870E94D20881EC0E94B2
:1012D000B1080E949C08982E85EC0E94B1080E94DB
:1012E0009C08282F30E0002E02C0359527950A94DF
:1012F000E2F7992D0B2C01C0990F0A94EAF7922B73
:10130000F70191937F01D39449855A85F8E0DF1264
:10131000D6CFFA0178E021E030E0DE01119680E0DE
:1013200090E010E06D91A901082E01C0440F0A94CD
:10133000EAF76423612B01968830910511F0162F8E
:10134000F1CF6193715049F72A960FB6F894DEBF3A
:101350000FBECDBFDF91CF911F910F91FF90EF9006
:10136000DF90CF90BF90AF909F9008959093C5006D
:101370008093C40082E08093C00088E98093C1001C
:1013800086E08093C20008959091C00095FFFCCF45
:101390008093C6000895CF93C82FCF7082958F7029
:1013A0008A3010F4805D01C0895C0E94C409CA3093
:1013B00010F480E301C087E38C0FCF910C94C40933
:1013C0000F931F93CF93DF931F92CDB7DEB7282FD4
:1013D0000AE0602F0E946714192F822F891B64E690
:1013E0000E946714805D99830E94C4099981892FA6
:1013F000602F0E946714805D0E94C40980E3810F02
:101400000F90DF91CF911F910F910C94C409CF934E
:10141000DF93D82FC8E0D0FF02C081E301C080E392
:101420000E94C409D695C150B1F7DF91CF910895BC
:10143000CF93DF93EC018991882319F00E94C409AE
:10144000FACF8AE00E94C4098DE0DF91CF910C941D
:10145000C4098091070181508093070180910301A5
:10146000909104019C012F5F3F4F30930401209322
:101470000301FC01E05FFE4F808120910301309168
:1014800004012115314021F410920401109203014E
:101490000895109207011092040110920301109216
:1014A00006011092050108951F920F920FB60F9238
:1014B00011242F933F938F939F93EF93FF938091EA
:1014C0000501909106018115914021F410920601C9
:1014D00010920501809107018F5F80930701809131
:1014E0000501909106019C012F5F3F4F309306014B
:1014F000209305012091C600FC01E05FFE4F208390
:10150000FF91EF919F918F913F912F910F900FBE7F
:101510000F901F90189543982FEF80E792E021508D
:1015200080409040E1F700C00000439A2FEF80E731
:1015300092E0215080409040E1F700C00000089503
:101540008AE18A95F1F700C0409A8AE18A95F1F71D
:1015500000C040988AE18A95F1F700C0089588B1EB
:10156000866388B94098089588B1897F88B98FE3E8
:101570000E94FE100E94A00A0E9420110C94AF0A43
:1015800088B1897C88B980EC0E94FE100E94A00A74
:101590000E9420110C94AF0A98B1997F98B980935A
:1015A00009018F7380640E94FE100E94A00A0E94AD
:1015B00020110C94AF0A98B1997F98B98770886B05
:1015C0000E94FE100E94A00A0E9420110C94AF0AF3
:1015D00090910901903418F498B19B7E02C098B1A3
:1015E0009B7D98B90E94FE100E94A00A0E942011C3
:1015F0000E94AF0A809109018F5F87FD03C080932D
:10160000090108951092090180E00C94CC0A1F93FF
:10161000CF93DF939091020181E0913009F080E057
:10162000182F1195C0E08C2F0E94DB0A80E00E94E9
:10163000CC0AD0E0812F0E94E80ADF5FD038D1F7D2
:10164000CF5FC83081F780E00E94DB0A80E0DF9145
:10165000CF911F910C94CC0ACF93DF931F92CDB7FB
:10166000DEB7803410F4449801C0459885E38A952C
:10167000F1F70000409A95E39A95F1F70000409841
:10168000E5E3EA95F1F70000409AF5E3FA95F1F702
:1016900000000E941411409895E39A95F1F700001C
:1016A00089830E94AF0A89810F90DF91CF910895BD
:1016B0009F92AF92BF92CF92DF92EF92FF920F93E1
:1016C0001F93CF93DF93D82EB42EC52E862F87700D
:1016D000982E88E0E82EE918A62EA694A694A69443
:1016E0008A2D0E94DB0ACB2DDC2DF12C08E010E0C6
:1016F000091911098F2D8D0D0E942C0B002E01C090
:10170000880F0A94EAF78993F39488E0F812F2CFED
:1017100081E08A0D0E94DB0ACB2DDC2DF12C08E044
:1017200010E00E191109E8808F2D8D0D0E942C0BF1
:10173000282F30E0002E02C0359527950A94E2F755
:101740002E292993F39488E0F812EDCFDF91CF9101
:101750001F910F91FF90EF90DF90CF90BF90AF90CF
:101760009F9008950F931F93CF93DF931F92CDB750
:10177000DEB7182F062F49830E94CC0A802F86954A
:10178000869586950E94DB0A812F0E942C0B982F4C
:10179000602F677080910201498121E030E0062EC0
:1017A00001C0220F0A94EAF7811103C0411105C05C
:1017B00002C0413011F4292B02C020952923812F2A
:1017C00029830E94CC0A2981822F0F90DF91CF912B
:1017D0001F910F910C94E80A8091080181110BC0B0
:1017E0000E948B0A0E94B40A0E94070B80E8809333
:1017F000010180E406C00E94030980EA8093010190
:1018000080E880930001089580910C0180930E017F
:1018100080910D0180930F0110920B0110920A012B
:1018200080910801811102C00C94070B0C94E90807
:101830009091080191110AC090910101891790F4CB
:1018400090910001691770F40C94B20B913051F42F
:1018500090910101891730F490910001691710F4FB
:101860000C941F0908952F923F924F925F926F92AE
:101870007F928F929F92AF92BF92CF92DF92EF9220
:10188000FF920F931F93CF93DF93482E562E481746
:1018900028F4522E262F842D442E482F44121AC08D
:1018A000251518F4852D522E282FC0E0D0E0052DE7
:1018B00010E0622E712CCE01800F911F6816790600
:1018C0000CF4C0C06C2F650D40E0842D0E94180CF4
:1018D0002196F1CFA42CB12C842E912C521211C040
:1018E000C0E0D0E0CE018A0D9B1D881699060CF44D
:1018F000A9C040E0652D8C2F840D0E94180C219604
:10190000F1CF622E712CC52DD0E093012C1B3D0B25
:101910008501A4014A195B096901CC0CDD1C7A011F
:10192000EE0CFF1C160137FD44C02E183F0842176D
:101930005307FCF08601041B150BE12CF12CC701A9
:101940008A0D9B1D881699060CF47CC040E06C2F14
:10195000842D8E0D0E94180C101611061CF00C0D13
:101960001D1D03C02196020D131D8FEFE81AF80A02
:10197000E6CF6701C21AD30AA12CB12CC5018C0F86
:101980009D1F681679060CF45DC040E0652D6A0D58
:10199000802F0E94180C1C141D041CF0CE0CDF1CA0
:1019A00004C00F5F1F4FC218D3088FEFA81AB80AE0
:1019B000E5CF2E0C3F1CEE27FF27E21BF30B4E1743
:1019C0005F070CF1002711270C191D09041B150BCB
:1019D000E12CF12CC7018A0D9B1D8816990694F104
:1019E00040E06C2F842D8E0D0E94180C10161106ED
:1019F0001CF00C191D0903C02197021913098FEF60
:101A0000E81AF80AE7CF6701C20ED31EA12CB12C49
:101A1000CE018A199B0986159705A4F040E0652D33
:101A20006A19802F0E94180C1C141D041CF0CE0C87
:101A3000DF1C04C00F5F1F4FC20CD31C8FEFA81A0E
:101A4000B80AE6CFDF91CF911F910F91FF90EF90F1
:101A5000DF90CF90BF90AF909F908F907F906F90CE
:101A60005F904F903F902F900895EF92FF920F93C9
:101A70001F93CF93DF93E82EF62EC42F122F482FFB
:101A80000E94330C2F2D4C2F6F2D8E2D0E94330C66
:101A9000212F4E2D612F8C2F0E94330C2F2D4C2F78
:101AA000612F8C2F0E94330CDF91CF911F910F91EA
:101AB000FF90EF9008955F926F927F928F929F9226
:101AC000AF92BF92CF92DF92EF92FF920F931F934C
:101AD000CF93DF93B82EA62E042F10E09801220F8B
:101AE000331FEE24E394F12CE21AF30AC12CD12C1B
:101AF000C0E0D0E08C2E8A0C40E0682D7B2C700E6C
:101B0000872D0E94180C9C2E9B0C40E06A2C600EC6
:101B1000662D892D0E94180C40E0682D8B2C801AB0
:101B2000882D0E94180C5B2C5C1A40E0662D852DD8
:101B30000E94180C6A2C6C1A40E0662D882D0E94B9
:101B4000180C40E08A2C801A682D852D0E94180CF4
:101B500040E0662D872D0E94180C40E0682D892DED
:101B60000E94180C9E01220F331FC20ED31E219615
:101B70009601220F331F2E0D3F1D121613063CF443
:101B800001501109CE0CDF1C82E0E80EF11C0C178D
:101B90001D070CF0AFCFDF91CF911F910F91FF90F8
:101BA000EF90DF90CF90BF90AF909F908F907F90FD
:101BB0006F905F900895EF92FF920F931F93CF93D2
:101BC000DF93C82F8830A9F18D3009F09FC0609154
:101BD000010170E06550710940910A0150910B01BB
:101BE000E0910E018E2F90E0EA5F9A012F5F3F4F48
:101BF0008617970714F4A901F5CF50930B01409372
:101C00000A0180910C0180930E0180910F01885F81
:101C100080930F0190E04091000150E0475051093E
:101C2000841795070CF472C080910D0180930F0109
:101C30006DC040910A0150910B014115510509F405
:101C400065C04150510950930B0140930A01209106
:101C50000E0180910C01281335C030910F01809145
:101C60000D0138131EC04091000150E04850510949
:101C700068E0630F832F90E08417950714F4362FE4
:101C8000F7CF30930F014091010150E045505109C9
:101C900036E0320F822F90E0841795079CF4232FB3
:101CA000F7CF385030930F014091010150E045507B
:101CB000510936E0320F822F90E08417950714F413
:101CC000232FF7CF265020930E01D0910E01409183
:101CD0000E0150E04C5F5F4F6D2F70E046175707C5
:101CE000ACF010910F0140910F0150E0495F5F4F40
:101CF000E12FF0E04E175F073CF041E0612F8D2FA0
:101D00000E94180C1F5FEFCFDF5FE1CF80EE8C0FDA
:101D10008F3508F068C02C2F30E0205231098091B7
:101D20000A0190910B01019690930B0180930A0197
:101D3000F0900E0185E0829FE001839FD00D112479
:101D4000C055D24F80910E01282F30E02C5F3F4FBD
:101D50004F2D50E0241735072CF1FE010491E0903F
:101D60000F0110E040910F0150E02E2D30E0FA01FC
:101D70003796E217F3079CF0241B350BC80102C00D
:101D8000959587952A95E2F780FF02C040E001C053
:101D900041E06E2D8F2D0E94180CE394E3CFF39455
:101DA0002196D0CF26E0280F20930E0130E08091BD
:101DB000010190E0069728173907ACF080910C01DB
:101DC00080930E0120910F01285F20930F0130E0D6
:101DD0008091000190E007972817390724F080913F
:101DE0000D0180930F01DF91CF911F910F91FF9013
:101DF000EF900895EF92FF920F931F93CF93DF938D
:101E00001F92CDB7DEB7E82EF62E142F481710F428
:101E1000E42E182F2F1528F48F2DF22E282F01C015
:101E2000F3942F1560F00E2D1017D0F341E06F2DB5
:101E3000802F29830E94180C0F5F2981F5CF0F9006
:101E4000DF91CF911F910F91FF90EF900895BF9276
:101E5000CF92DF92EF92FF920F931F93CF93DF9376
:101E6000E0900101E694E6EFCE2ECE0CD09000017A
:101E7000D694F8EFBF2EBD0CCCE9DDE00C2DFE01B1
:101E80001491FB2C90910201812F8170911102C05D
:101E900019F004C0882311F041E001C040E06F2D2B
:101EA000802F0E94180C1695F394FD10EBCF21960D
:101EB0000F5F0E11E4CFC6EADDE01C2DFE01C490D9
:101EC0000D2DF12C909102018C2D8170911102C089
:101ED00019F004C0882311F041E001C040E0602FF8
:101EE000812F0E94180CC694F3940F5FF8E0FF1244
:101EF000E9CF21961F5F1E11E1CFDF91CF911F9196
:101F00000F91FF90EF90DF90CF90BF900895909148
:101F10000801911102C00C94580B0C943F099F9238
:101F2000AF92BF92CF92DF92EF92FF920F931F93E7
:101F3000CF93DF93CDB7DEB729970FB6F894DEBF06
:101F40000FBECDBFB82E162F88E0489F7001112418
:101F5000AE014F5F5F4F8B2D29870E94870FDE01F7
:101F60001196A701C7010896298548175907B0F4AB
:101F700030910201332319F03C9130953C93FA01E2
:101F8000E45EF24F3491FA01E45AF24FE4916C911D
:101F900036233E2B3D934F5F5F4FE7CF233351F105
:101FA00078F4203309F0B0C06E01F9E0CF0ED11CF7
:101FB000CE0101967C01A7E09A2E910E11503CC0F3
:101FC000263381F0293309F09FC087E0C82EC10E67
:101FD000AA24AA94A10EFE0131967F0117E01B0DE1
:101FE000BA948CC0B7E0DB2EDB0CBA94CE0101961C
:101FF0007C0165C06E0199E0C90ED11CFE013196CD
:102000007F013CC0F7018081011118C080FD18C01C
:1020100041E06A2D8B2D0E94180CF7018081869576
:102020008083AA94A112EECFFFEFEF1AFF0AB394B8
:10203000EC14FD0409F468C0A92CE4CF80FDE8CFBE
:1020400040E0E7CFF701808101111BC080FD1BC07C
:1020500041E0612F8A2D0E94180CF701808186953E
:1020600080839394A394F8E09F12ECCF8FEFE81A4B
:10207000F80A1F5FEC14FD0409F446C0AB2C912C48
:10208000E1CF80FDE5CF40E0E4CFF7018081011191
:1020900019C080FD19C041E06C2D8D2D0E94180CD7
:1020A000F701808186958083A394C394F8E0AF12F2
:1020B000ECCF8FEFE81AF80ADA94DB1429F1C12E7D
:1020C000A12CE3CF80FDE7CF40E0E6CFF701808190
:1020D000011116C080FD16C041E06C2D8D2D0E94AF
:1020E000180CF701808186958083DA94DB10EECF9F
:1020F000FFEFEF1AFF0ACA94CA1431F0D12EE6CFCF
:1021000080FDEACF40E0E9CF29960FB6F894DEBF14
:102110000FBECDBFDF91CF911F910F91FF90EF9038
:10212000DF90CF90BF90AF909F9008957F928F9255
:102130009F92AF92BF92CF92DF92EF92FF920F9356
:102140001F93CF93DF93782E20E431E0429F60010C
:10215000439FD00C1124B62EC0E0D0E0972C00E0B5
:1021600010E07E01EC0CFD1CC70184569F4F7C01E2
:10217000F701E00FF11F8490A12C20910201982D0E
:1021800091708A2D890D211103C0992319F004C083
:10219000992311F041E001C040E06B2D0E94180C22
:1021A0008694A39488E0A812E8CF0F5F1F4F980E83
:1021B00005301105E9F6B3942596C03491E0D907AE
:1021C00069F6DF91CF911F910F91FF90EF90DF9013
:1021D000CF90BF90AF909F908F907F9008958FE0A9
:1021E00084B98CEF8AB92A9880910801882311F06C
:1021F000813019F48FE387B988B9089594B1936059
:1022000094B99AB19C6F9AB995B19C7F95B99BB1DD
:1022100093709BB925B1982F9370922B95B99BB170
:102220008C7F892B8BB9089584B18C7F84B98AB156
:1022300083708AB983B199B19C7F8370892B08958B
:1022400084B18C7F84B98AB183708AB908950F9361
:102250001F93CF93DF9300D000D01F92CDB7DEB78E
:1022600090E08A31910508F081C1FC01EC5CFF4FE0
:102270000C9473148091020191E0892780930201EC
:102280000E94CE120F900F900F900F900F90DF9141
:10229000CF911F910F910C94040C0F900F900F9001
:1022A0000F900F90DF91CF911F910F910C94C0125E
:1022B000809107018823E1F30E94290A89838536EA
:1022C00010F084E68983898190E090938B0080935D
:1022D0008A0089810F900F900F900F900F90DF91DF
:1022E000CF911F910F910C94ED12809107018823DB
:1022F000E1F30E94290A182F0E94DF121333A9F07C
:1023000040F4113379F0123309F030C18FEC90E0D2
:102310000EC01533D1F0B0F0163309F027C180E1BB
:1023200090E005C080EA91E002C087E690E00F905F
:102330000F900F900F900F90DF91CF911F910F9101
:102340000C94B60983E390E0F2CF82E290E0EFCF05
:10235000809107018823E1F30E94290A209101015D
:1023600030E025503109482F50E0421753070CF058
:10237000FDC080930C0180930E0115C08091070170
:102380008823E1F30E94290A2091000130E02750C0
:102390003109482F50E0421753070CF0E7C08093F3
:1023A0000D0180930F0110920B0110920A01DEC003
:1023B00010E080910701882361F001E0010F0E9485
:1023C000290AE1E0F0E0EC0FFD1FE10FF11D808331
:1023D000102F133070F341E08B81811140E06A814E
:1023E00089810F900F900F900F900F90DF91CF91F8
:1023F0001F910F910C94180C10E080910701882315
:1024000061F001E0010F0E94290AE1E0F0E0EC0F29
:10241000FD1FE10FF11D8083102F153070F301E0D7
:102420008D81811100E02C814B816A8189810E941C
:10243000330C9CC010E080910701882361F001E01B
:10244000010F0E94290AE1E0F0E0EC0FFD1FE10F0F
:10245000F11D8083102F143070F321E08C818111E5
:1024600020E04B816A8189810F900F900F900F902F
:102470000F90DF91CF911F910F910C945B0D10E0A5
:1024800080910701882361F001E0010F0E94290A71
:10249000E1E0F0E0EC0FFD1FE10FF11D8083102F54
:1024A000153070F301E08D81811100E02C814B81AA
:1024B0006A8189810E94350D59C010E08091070121
:1024C000882361F001E0010F0E94290AE1E0F0E0B9
:1024D000EC0FFD1FE10FF11D8083102F143070F3FE
:1024E0002C814B816A8189810F900F900F900F9002
:1024F0000F90DF91CF911F910F910C94FA0E10E085
:1025000080910701882361F001E0010F0E94290AF0
:10251000E1E0F0E0EC0FFD1FE10FF11D8083102FD3
:10252000153070F301E08D81811100E02C814B8129
:102530006A8189810E948F0F19C0809107018823C9
:1025400061F001E0010F0E94290AE1E0F0E0EC0FE8
:10255000FD1FE10FF11D8083102F133070F34B81AD
:102560006A8189810E94961010E0E7CF0F900F904A
:102570000F900F900F90DF91CF911F910F910895C1
:1025800080E090E00E94801461E0682780E090E0A5
:102590000C94881480E090E00C94801481E090E02A
:1025A0000E948014682F6095617081E090E00C9427
:1025B000881481E090E00E948014809508959FEC3B
:1025C000980F963028F4682F82E090E00C948814DD
:1025D000089582E090E00C948014682F83E090E0EE
:1025E0000C94881483E090E00C948014BF92CF92F6
:1025F000DF92EF92FF920F931F93CF93DF93CDB7AC
:10260000DEB7C054D1090FB6F894DEBF0FBECDBF00
:102610000BE81FE02DEFF22EF80165917491CE01C9
:1026200001960E947914E12CE1E0F0E0EC0FFD1F2F
:10263000EE0DF11D8081882321F0E3940E94DB0DD3
:10264000F3CF8DE00E94DB0D2FEF8EE994E2215055
:1026500080409040E1F700C0000021E02F1598F085
:102660008FEF9EE924E2815090402040E1F700C0C6
:1026700000000E94040C10920E01809100018695CA
:10268000885080930F010E5F1F4FF39483E0F81280
:10269000C3CFDD24D394F12CEE24E3942F2D30E02E
:1026A0008091000190E0079728173907ECF410E0BB
:1026B000412F50E02091010130E0275031094217AD
:1026C000530774F4DD2011F000E001C001E020E3C5
:1026D0004FE76F2D812F0E948F0FDE24185FE8CF08
:1026E000DE2498E0F90EDACF2FEF89E698E1215049
:1026F00080409040E1F700C0000012E080910101AD
:102700008695181790F460910001669520E0412F9E
:102710000E945B0D2FEF84E39CE0215080409040AD
:10272000E1F700C00000185FE9CFFF24F39410E048
:10273000EE24E394212F30E08091000190E0079790
:10274000281739070CF040C0D12C87E0C82EC10EE5
:10275000ED2DF0E04091010150E047505109E417A0
:10276000F50784F500E020E3FF2011F044E001C00C
:1027700045E0612F8D2D0E948F0FFE249AE0B92E27
:10278000BD0C00E020E340E0612F8B2D0E948F0FF5
:102790002FEF83EC99E0215080409040E1F700C09A
:1027A000000047E04D0D2C2D612F8D2D0E94FA0E5B
:1027B00041E14D0D2C2D612F8B2D0E94FA0E28E04A
:1027C000D20EC6CF185FB6CFC05CDF4F0FB6F894FD
:1027D000DEBF0FBECDBFDF91CF911F910F91FF9054
:1027E000EF90DF90CF90BF9008952B9A2AE12A9521
:1027F000F1F700C081E0809308012B980E94EF1050
:102800000E94530880E190E00E94B60978940E94EB
:10281000D9128170809302010E94EC0B0E94040C7B
:102820000E94CA1280FD0E94270F8FEF93ED20E3D4
:10283000815090402040E1F700C0000080910701E6
:10284000811122C00E94E912833399F038F4813358
:1028500069F08233E1F48FEC90E013C0853379F0B6
:1028600058F08633A1F480E190E00BC080EA91E05B
:1028700008C087E690E005C083E390E002C082E2F2
:1028800090E00E94B60903C086E30E94DF120E9416
:10289000040C0E94490A809107018823E1F30E94F9
:1028A000290A8C3749F4809107018823E1F30E94BB
:1028B000290A0E942711EFCF90EE980F9F3520F044
:1028C0008D3011F0883039F70E94DB0DE4CF991B71
:1028D00079E004C0991F961708F0961B881F7A9517
:1028E000C9F780950895EE0FFF1F0590F491E02D34
:1028F0000994FB01DC0105900D920020E1F7089599
:10290000F999FECF92BD81BDF89A992780B50895B7
:10291000262FF999FECF1FBA92BD81BD20BD0FB6FB
:10292000F894FA9AF99A0FBE01960895F894FFCF99
:022930004080E5
:00000001FF
