S01400004156525F4669726D776172652E737265638B
S11300000C94C6070C94E3070C94E3070C94E307E1
S11300100C94E3070C94E3070C94E3070C94E307B4
S11300200C94E3070C94E3070C94E3070C94E307A4
S11300300C94E3070C94E3070C94E3070C94E30794
S11300400C94E3070C94E3070C9478080C94E307EE
S11300500C94E3070C94E3070C94E3070C94E30774
S11300600C94E3070C94E307131269132412DC12B3
S11300704F13171369133912691369136913311371
S1130080BE1269136913F912A2126913161221120E
S113009069136913691369136E1288120000000052
S11300A0000000000000000000000000000000004C
S11300B007FFFFFFE00FFFFFFFF01FFFFFFFF81F29
S11300C0FFFFFFF81FFFFFFFF81FFFFFFFF81FFFF1
S11300D0FFFFF81FFFFFFFF81FE00007F81FE00015
S11300E007F81FE00007F81FE00007F81FE000070B
S11300F0F81FE00007F81FE00007F81FE00007F80A
S11301001FE00007F81FE00007F81FE00007F81FD2
S1130110E00007F81FE00007F81FE00007F81FE001
S11301200007F81FE00007F81FE00007F81FE000D1
S113013007F81FE00007F81FE00007F81FE00007BA
S1130140F81FE00007F81FE00007F81FE00007F8B9
S11301501FE00007F81FE00007F81FE00007F81F82
S1130160E00007F81FE00007F81FE00007F81FE0B1
S11301700007F81FE00007F81FE00007F81FE00081
S113018007F81FE00007F81FE00007F81FE000076A
S1130190F81FE00007F81FE00007F81FE00007F869
S11301A01FFFFFFFF81FFFFFFFF81FFFFFFFF81FF0
S11301B0FFFFFFF81FFFFFFFF81FFFFFFFF80FFF10
S11301C0FFFFF007FFFFFFE0000000000000000059
S11301D0000000000000000000000000000000001B
S11301E0000000000000000000000000000000000B
S11301F000003F80000000FFC0000001FFC00000BD
S113020007FFC000001FFFC000003FFFC00000FF49
S1130210FFC00001FFFFC00001FFFFC00001FFFF9E
S1130220C00001FFFFC00001FFFFC00001FFFFC0CD
S11302300001FFFFC0000000FFC0000000FFC0007D
S11302400000FFC0000000FFC0000000FFC000006D
S113025000FFC0000000FFC0000000FFC00000005D
S1130260FFC0000000FFC0000000FFC0000000FF4E
S1130270C0000000FFC0000000FFC0000000FFC07D
S1130280000000FFC0000000FFC0000000FFC0002D
S11302900000FFC0000000FFC0000000FFC000001D
S11302A000FFC0000000FFC0000000FFC00000000D
S11302B0FFC0000000FFC0000000FFC0000000FFFE
S11302C0C0000000FFC0000000FFC0000000FFC02D
S11302D0000000FFC0000000FFC0000000FFC000DD
S11302E00000FFC0000000FFC0000000FFC00000CD
S11302F000FFC0000000FFC0000000FFC0000000BD
S1130300FFC0000000FFC00000000000000000006B
S113031000000000000000000000000000000000D9
S113032000000000000000000000000000000000C9
S113033003FFFFFFE007FFFFFFF00FFFFFFFF81FC2
S1130340FFFFFFF81FFFFFFFF81FFFFFFFF81FFF6E
S1130350FFFFF81FFFFFFFF81FFFFFFFF80000007B
S11303601FF80000000FF80000000FF80000000F55
S1130370F80000000FF80000000FF80000000FF86C
S11303800000000FF80000000FF80000000FF80054
S113039000000FF80000000FF80000000FF8000044
S11303A0000FF80000001FF807FFFFFFF80FFFFF22
S11303B0FFF81FFFFFFFF81FFFFFFFF81FFFFFFFFE
S11303C0F81FFFFFFFF81FFFFFFFF81FFFFFFFF0FD
S11303D01FFFFFFFE01FF00000001FE00000001FF0
S11303E0E00000001FE00000001FE00000001FE02C
S11303F00000001FE00000001FE00000001FE000FC
S113040000001FE00000001FE00000001FE00000EB
S1130410001FE00000001FF00000001FFFFFFFF8B6
S11304201FFFFFFFF81FFFFFFFF81FFFFFFFF81F6D
S1130430FFFFFFF81FFFFFFFF81FFFFFFFF81FFF7D
S1130440FFFFF81FFFFFFFF800000000000000009E
S11304500000000000000000000000000000000098
S11304600000000000000000000000000000000088
S113047007FFFFFFE00FFFFFFFF01FFFFFFFF81F65
S1130480FFFFFFF81FFFFFFFF81FFFFFFFF81FFF2D
S1130490FFFFF81FFFFFFFF80FFFFFFFF80000004A
S11304A00FF80000000FF80000000FF80000000F24
S11304B0F80000000FF80000000FF80000000FF82B
S11304C00000000FF80000000FF80000000FF80013
S11304D000000FF80000000FF80000000FF8000003
S11304E0000FF8003FFFFFF8003FFFFFF8003FFF59
S11304F0FFF8003FFFFFF8003FFFFFF8003FFFFF5A
S1130500F8003FFFFFF8003FFFFFF8003FFFFFF850
S11305100000000FF80000000FF80000000FF800C2
S113052000000FF80000000FF80000000FF80000B2
S1130530000FF80000000FF80000000FF8000000A2
S11305400FF80000000FF80000000FF80000000F83
S1130550F80000000FF80000000FF80FFFFFFFF88D
S11305601FFFFFFFF81FFFFFFFF81FFFFFFFF81F2C
S1130570FFFFFFF81FFFFFFFF81FFFFFFFF81FFF3C
S1130580FFFFF80FFFFFFFF0000000000000000075
S11305900000000000000000000000000000000057
S11305A00000000000000000000000000000000047
S11305B007F0000FE00FF0000FF01FF0000FF81F1E
S11305C0F0000FF81FF0000FF81FF0000FF81FF0F5
S11305D0000FF81FF0000FF81FF0000FF81FF000D5
S11305E00FF81FF0000FF81FF0000FF81FF0000FB6
S11305F0F81FF0000FF81FF0000FF81FF0000FF8BD
S11306001FF0000FF81FF0000FF81FF0000FF81F85
S1130610F0000FF81FF0000FF81FF0000FF81FF0A4
S1130620000FF81FFFFFFFF81FFFFFFFF81FFFFF7A
S1130630FFF81FFFFFFFF81FFFFFFFF81FFFFFFF7B
S1130640F81FFFFFFFF81FFFFFFFF81FFFFFFFF872
S11306500000000FF80000000FF80000000FF80081
S113066000000FF80000000FF80000000FF8000071
S1130670000FF80000000FF80000000FF800000061
S11306800FF80000000FF80000000FF80000000F42
S1130690F80000000FF80000000FF80000000FF849
S11306A00000000FF80000000FF80000000FF80031
S11306B000000FF80000000FF80000000FF8000021
S11306C0000FF80000000FF0000000000000000020
S11306D00000000000000000000000000000000016
S11306E00000000000000000000000000000000006
S11306F003FFFFFFC007FFFFFFE00FFFFFFFF01F37
S1130700FFFFFFF81FFFFFFFF81FFFFFFFF81FFFAA
S1130710FFFFF81FFFFFFFF81FFFFFFFF81FF800A0
S113072000001FF00000001FF00000001FF0000098
S1130730001FF00000001FF00000001FF000000088
S11307401FF00000001FF00000001FF00000001F59
S1130750F00000001FF00000001FF00000001FF870
S11307600000001FFFFFFFC01FFFFFFFE01FFFFF90
S1130770FFF01FFFFFFFF81FFFFFFFF81FFFFFFF42
S1130780F81FFFFFFFF81FFFFFFFF81FFFFFFFF831
S11307900000001FF80000000FF80000000FF80030
S11307A000000FF80000000FF80000000FF8000030
S11307B0000FF80000000FF80000000FF800000020
S11307C00FF80000000FF80000000FF80000000F01
S11307D0F80000000FF80000001FF80FFFFFFFF8FB
S11307E01FFFFFFFF81FFFFFFFF81FFFFFFFF81FAA
S11307F0FFFFFFF81FFFFFFFF81FFFFFFFF81FFFBA
S1130800FFFFF80FFFFFFFF00000000000000000F2
S113081000000000000000000000000000000000D4
S113082000000000000000000000000000000000C4
S113083003FFFFFFC007FFFFFFE00FFFFFFFF01FF5
S1130840FFFFFFF81FFFFFFFF81FFFFFFFF81FFF69
S1130850FFFFF81FFFFFFFF81FFFFFFFF81FF8005F
S113086000001FF00000001FF00000001FF0000057
S1130870001FF00000001FF00000001FF000000047
S11308801FF00000001FF00000001FF00000001F18
S1130890F00000001FF00000001FF00000001FF82F
S11308A00000001FFFFFFFC01FFFFFFFE01FFFFF4F
S11308B0FFF01FFFFFFFF81FFFFFFFF81FFFFFFF01
S11308C0F81FFFFFFFF81FFFFFFFF81FFFFFFFF8F0
S11308D01FF8001FF81FF0000FF81FF0000FF81F9B
S11308E0F0000FF81FF0000FF81FF0000FF81FF0D2
S11308F0000FF81FF0000FF81FF0000FF81FF000B2
S11309000FF81FF0000FF81FF0000FF81FF0000F92
S1130910F81FF0000FF81FF8001FF81FFFFFFFF883
S11309201FFFFFFFF81FFFFFFFF81FFFFFFFF81F68
S1130930FFFFFFF81FFFFFFFF81FFFFFFFF81FFF78
S1130940FFFFF80FFFFFFFF00000000000000000B1
S11309500000000000000000000000000000000093
S11309600000000000000000000000000000000083
S113097007FFFFFFE00FFFFFFFF01FFFFFFFF81F60
S1130980FFFFFFF81FFFFFFFF81FFFFFFFF81FFF28
S1130990FFFFF81FFFFFFFF80FFFFFFFF800000045
S11309A00FF80000000FF80000000FF80000000F1F
S11309B0F80000000FF80000000FF80000000FF826
S11309C00000000FF80000000FF80000000FF8000E
S11309D000000FF80000000FF80000000FF80000FE
S11309E0000FF80000000FF80000000FF8000000EE
S11309F00FF80000000FF80000000FF80000000FCF
S1130A00F80000000FF80000000FF80000000FF8D5
S1130A100000000FF80000000FF80000000FF800BD
S1130A2000000FF80000000FF80000000FF80000AD
S1130A30000FF80000000FF80000000FF80000009D
S1130A400FF80000000FF80000000FF80000000F7E
S1130A50F80000000FF80000000FF80000000FF885
S1130A600000000FF80000000FF80000000FF8006D
S1130A7000000FF80000000FF80000000FF800005D
S1130A80000FF80000000FF000000000000000005C
S1130A900000000000000000000000000000000052
S1130AA00000000000000000000000000000000042
S1130AB003FFFFFFC007FFFFFFE00FFFFFFFF01F73
S1130AC0FFFFFFF81FFFFFFFF81FFFFFFFF81FFFE7
S1130AD0FFFFF81FFFFFFFF81FFFFFFFF81FF800DD
S1130AE01FF81FF0000FF81FF0000FF81FF0000FA1
S1130AF0F81FF0000FF81FF0000FF81FF0000FF8B8
S1130B001FF0000FF81FF0000FF81FF0000FF81F80
S1130B10F0000FF81FF0000FF81FF0000FF81FF897
S1130B20001FF81FFFFFFFF81FFFFFFFF81FFFFF65
S1130B30FFF81FFFFFFFF81FFFFFFFF81FFFFFFF76
S1130B40F81FFFFFFFF81FFFFFFFF81FFFFFFFF86D
S1130B501FF8001FF81FF0000FF81FF0000FF81F18
S1130B60F0000FF81FF0000FF81FF0000FF81FF04F
S1130B70000FF81FF0000FF81FF0000FF81FF0002F
S1130B800FF81FF0000FF81FF0000FF81FF0000F10
S1130B90F81FF0000FF81FF8001FF81FFFFFFFF801
S1130BA01FFFFFFFF81FFFFFFFF81FFFFFFFF81FE6
S1130BB0FFFFFFF81FFFFFFFF81FFFFFFFF81FFFF6
S1130BC0FFFFF80FFFFFFFF000000000000000002F
S1130BD00000000000000000000000000000000011
S1130BE00000000000000000000000000000000001
S1130BF007FFFFFFE00FFFFFFFF01FFFFFFFF81FDE
S1130C00FFFFFFF81FFFFFFFF81FFFFFFFF81FFFA5
S1130C10FFFFF81FFFFFFFF81FFFFFFFF81FF8009B
S1130C201FF81FF0000FF81FF0000FF81FF0000F5F
S1130C30F81FF0000FF81FF0000FF81FF0000FF876
S1130C401FF0000FF81FF0000FF81FF0000FF81F3F
S1130C50F0000FF81FF0000FF81FF0000FF81FF856
S1130C60001FF81FFFFFFFF81FFFFFFFF81FFFFF24
S1130C70FFF81FFFFFFFF81FFFFFFFF81FFFFFFF35
S1130C80F81FFFFFFFF81FFFFFFFF80FFFFFFFF83C
S1130C900000000FF80000000FF80000000FF8003B
S1130CA000000FF80000000FF80000000FF800002B
S1130CB0000FF80000000FF80000000FF80000001B
S1130CC00FF80000000FF80000000FF80000000FFC
S1130CD0F80000000FF80000000FF80FFFFFFFF806
S1130CE01FFFFFFFF81FFFFFFFF81FFFFFFFF81FA5
S1130CF0FFFFFFF81FFFFFFFF81FFFFFFFF81FFFB5
S1130D00FFFFF80FFFFFFFF00000000000000000ED
S1130D10000000000000000000000000FFC081008F
S1130D20010081C07EFFFFFFFFFFFF7EEFDFBF00FA
S1130D3000BFDFEFEFDFBF00FFFFFFFFC381000055
S1130D40000099DBC3810000000081C3DB9900002F
S1130D50000081C3C3810000000081C3003F4291B1
S1130D608291423F8100000000000081102040FF7A
S1130D70FF402010102040FF000000003C4281A1F1
S1130D80899966243C4281A181894A3C24669989D7
S1130D90A181423C3C4A8981A181423C80C0400CF3
S1130DA03EFEF2E0F0E0FF7F3F1F1F1F1F0F07030F
S1130DB00000000000006F6F00000007000700142F
S1130DC07F147F1400266B2A104333086463324D6A
S1130DD04936500000070000001C22410000412257
S1130DE01C00110A1F0A1110107C10100000A060D2
S1130DF00010101010100000606000403008060160
S1130E003E5149453E00427F4000426151494622DD
S1130E1041494936080C0A7F0827454545393C4A6B
S1130E20494930016119070136494949360649499A
S1130E30291E00006C6C000000AC6C0008142241F8
S1130E400014141414140041221408020151090658
S1130E503E415D5D467C1211127C7F494949363E14
S1130E60414141227F4141413E7F494949417F09F6
S1130E700909013E414151727F0808087F41417FC1
S1130E80414121413F01017F081422417F404040FC
S1130E90407F0204027F7F0608307F3E4141413E8D
S1130EA07F090909063E4141617E7F0919294626C9
S1130EB04949493201017F01013F4040403F1F2021
S1130EC040201F3F4030403F6314081463030478FC
S1130ED00403615149454300007F410000000000C4
S1130EE000010608304004020102048080808080F2
S1130EF0010204000020545454787F484444383894
S1130F0044444428384444487F3854545418087E90
S1130F1009010218A4A4A4787F0808087000487A7C
S1130F204000408080887A7F1010284400417F4030
S1130F30007C043804787C0404047838444444383D
S1130F40FC24242418182424FC807C080404084865
S1130F505454542000083C48203C4040407C0C3011
S1130F6040300C1C6018601C44281028441CA0A0AD
S1130F70A07C4464544C4400083641412040FF4066
S1130F8020414136080010081810080011241FBE23
S1130F90CFEFD4E0DEBFCDBF11E0A0E0B1E0E4E2EA
S1130FA0F7E202C005900D92A230B107D9F722E012
S1130FB0A2E0B1E001C01D92A031B207E1F70E94A6
S1130FC0F9070C9490130C94000082E38093800042
S1130FD089E18093810084E690E090938700809378
S1130FE086000E94641090E090938B0080938A00A6
S1130FF008952B9A2AE12A95F1F700C081E08093A5
S113100008012B980E94AF080E94E50780E190E058
S11310100E94691078940E944910817080930201A3
S11310200E94560A0E94700A0E94381080FD0E9495
S1131030CC0D8FEF93ED20E3815090402040E1F7F9
S113104000C000008091070181112EC00E94591038
S11310508333B1F028F4813349F0823361F027C03F
S11310608533C1F090F08633D1F021C080EA91E05D
S11310700E9469101CC08FEC90E00E94691017C098
S113108087E690E00E94691012C083E390E00E941A
S113109069100DC082E290E00E94691008C080E1EE
S11310A090E00E94691003C086E30E944F100E94E2
S11310B0700A0E94971017C00E9477108C3749F469
S11310C0809107018823E1F30E9477100E94FF11A9
S11310D00AC090EE980F9F3520F08D3011F08830C3
S11310E011F40E942F0C809107018823E1F3E4CFCF
S11310F01F920F920FB60F9211242F933F938F9349
S11311009F93EF93FF9380910501909106018115C0
S1131110914021F41092060110920501809107017B
S11311208F5F8093070180910501909106019C01D6
S11311302F5F3F4F30930601209305012091C60095
S1131140FC01E05FFE4F2083FF91EF919F918F910F
S11311503F912F910F900FBE0F901F9018958FE025
S113116084B98CEF8AB92A9880910801811104C04E
S11311708FE387B988B90895813019F48FE387B96B
S113118088B9089594B1936094B99AB19C6F9AB94F
S113119095B19C7F95B99BB193709BB995B1282F5C
S11311A02370922B95B99BB18C7F892B8BB90895B1
S11311B084B18C7F84B98AB183708AB993B189B1BF
S11311C093708C7F892B089584B18C7F84B98AB104
S11311D083708AB9089543982FEF80E792E02150F5
S11311E080409040E1F700C00000439A2FEF80E771
S11311F092E0215080409040E1F700C00000089543
S11312008AE18A95F1F700C0409A8AE18A95F1F75C
S113121000C040988AE18A95F1F700C0089588B12A
S1131220866388B94098089588B1897F88B98FE327
S11312300E94C2080E9400090E94E4080E940F094B
S1131240089598B1997F98B9809309018F73806448
S11312500E94C2080E9400090E94E4080E940F092B
S1131260089598B1997F98B98770886B0E94C208D5
S11312700E9400090E94E4080E940F0908959091B9
S11312800901903420F498B19B7E98B903C098B1B9
S11312909B7D98B90E94C2080E9400090E94E4083C
S11312A00E940F09809109018F5F1AF08093090150
S11312B008951092090180E00E94210908951F9366
S11312C0CF93DF9380910201D1E0813009F0D0E027
S11312D0D19510E0812F0E94310980E00E942109FC
S11312E0C0E08D2F0E943F09CF5FC038D1F71F5F48
S11312F0183081F780E00E94310980E00E942109C2
S1131300DF91CF911F910895CF93803410F44498C6
S113131001C0459885E38A95F1F70000409A85E37A
S11313208A95F1F70000409885E38A95F1F700006B
S1131330409A85E38A95F1F700000E94D808C82FE7
S1131340409885E38A95F1F700000E940F098C2FDD
S1131350CF9108959F92AF92BF92CF92DF92EF9276
S1131360FF920F931F93CF93DF93E82EC42ED52EB5
S1131370862F8770982E88E0A82EA918B62EB694CA
S1131380B694B6948B2D0E943109CC2DDD2DF12C11
S113139008E010E0091911098F2D8E0D0E948409AF
S11313A0002E01C0880F0A94EAF78993F39488E029
S11313B0F812F2CF81E08B0D0E943109CC2DDD2D86
S11313C0F12C08E010E00A191109D8808F2D8E0D38
S11313D00E948409482F50E09A01002E02C03595DE
S11313E027950A94E2F72D292993F39488E0F812BB
S11313F0ECCFDF91CF911F910F91FF90EF90DF9091
S1131400CF90BF90AF909F9008951F93CF93DF9399
S1131410C82FD62F142F0E9421098D2F86958695CB
S113142086950E9431098C2F0E948409D77090916F
S11314300201911119C011110BC0E1E0F0E0AF01FC
S113144002C0440F551FDA95E2F7D82FD42B24C0DD
S113145041E050E09A0102C0220F331FDA95E2F70F
S11314602095D82FD22318C0113059F4A1E0B0E050
S1131470FD0102C0EE0FFF1FDA95E2F7D82FDE2B35
S11314800BC021E030E0B90102C0660F771FDA9586
S1131490E2F76095D82FD6238C2F0E9421098D2F37
S11314A00E943F09DF91CF911F9108958091080117
S11314B081110DC00E94EB080E9414090E945F096B
S11314C080E88093010180E48093000108950E94E4
S11314D0351180EA8093010180E88093000108952A
S11314E080910C0180930E0180910D0180930F0176
S11314F010920B0110920A0180910801811103C01E
S11315000E945F0908950E9419110895909108019D
S113151091110BC090910101891798F490910001E9
S1131520691778F40E94050A0895913051F4909156
S11315300101891730F490910001691710F40E9499
S11315404E1108956F927F928F929F92AF92BF92A5
S1131550CF92DF92EF92FF920F931F93CF93DF937B
S1131560882EC62F481728F4C22F262F882D842EA4
S1131570482F841216C02C1718F48C2FC22F282F32
S1131580D0E0022F10E00C171D070CF4B3C040E0AC
S11315906C2F882D0E94860A21960C171D07BCF714
S11315A0A9C0C21313C0912CE42EF12CE814F90441
S11315B00CF4A0C040E06C2F882D0E94860A8FEFA7
S11315C0881A980AE814F904ACF794C0022F10E0C2
S11315D0D0E098012C1B3D0BE42EF12C912CC7017B
S11315E0881999095901AA0CBB1C3C01660C771C8B
S11315F03323F4F16501C618D70882179307E4F082
S11316008501081B190BE814F9040CF473C040E0BD
S11316106C2F882D0E94860A101611061CF00A0DE4
S11316201B1D03C021960C0D1D1D8FEF881A980AEF
S1131630E814F90464F75EC07301E21AF30A0C17A4
S11316401D070CF457C040E06C2F882D0E94860AB9
S11316501E141F041CF0E60CF71C05C08FEF881A3B
S1131660980AEC18FD0821960C171D0764F742C070
S11316706501C60CD71C44275527421B530B8417FE
S11316809507F4F0002711270A191B09081B190BE9
S1131690E814F9047CF140E06C2F882D0E94860A3E
S11316A0101611061CF00A191B0903C021970C1906
S11316B01D098FEF881A980AE814F90464F71AC010
S11316C07301E20EF31EC017D107A4F040E06C2FA3
S11316D0882D0E94860A1E141F041CF0E60CF71CB9
S11316E005C08FEF881A980AEC0CFD1C2197C017CF
S11316F0D10764F7DF91CF911F910F91FF90EF9085
S1131700DF90CF90BF90AF909F908F907F906F901D
S11317100895EF92FF920F931F93CF93DF93E82ED8
S1131720162FC42FD22F482F0E94A20A212F4C2FEC
S1131730612F8E2D0E94A20A2D2F4E2D6D2F8C2FDE
S11317400E94A20A212F4C2F6D2F8C2F0E94A20AD7
S1131750DF91CF911F910F91FF90EF9008955F92C9
S11317606F927F928F929F92AF92BF92CF92DF92AD
S1131770EF92FF920F931F93CF93DF93A82EB62E71
S1131780042F10E09801220F331F81E090E06C01D8
S1131790C21AD30AE12CF12CC0E0D0E08C2E8B0CC1
S11317A040E0682D7A2C700E872D0E94860A9C2EAC
S11317B09A0C40E06B2C600E662D892D0E94860ADF
S11317C040E0682D8A2C801A882D0E94860A5A2CA3
S11317D05C1A40E0662D852D0E94860A6B2C6C1ADB
S11317E040E0662D882D0E94860A40E08B2C801AEA
S11317F0682D852D0E94860A40E0662D872D0E9463
S1131800860A40E0682D892D0E94860A9E01220FD7
S1131810331FE20EF31E21969701220F331F2C0D66
S11318203D1D121613063CF401501109EC0CFD1C6D
S113183082E0C80ED11C0C171D070CF0AFCFDF914E
S1131840CF911F910F91FF90EF90DF90CF90BF90B9
S1131850AF909F908F907F906F905F900895AF921C
S1131860BF92CF92DF92EF92FF920F931F93CF9389
S1131870DF938830B9F18D3009F0CCC060910E014E
S11318804091010150E046505109862F90E04817DD
S113189059078CF020910A0130910B016A5F2F5F88
S11318A03F4F862F90E06A5F48175907C4F730937B
S11318B00B0120930A0180910C0180930E01EFE04B
S11318C0F1E02081285F208330E08091000190E0E6
S11318D00797281739070CF428C180910D018093CC
S11318E00F0123C180910A0190910B01009709F423
S11318F01CC1019790930B0180930A0180910E0102
S113190090910C01891351C040910F0180910D01F8
S113191048132EC08091000190E00897242F30E0F6
S11319202817390764F4485F58E0540F242F30E037
S11319302817390714F4452FF7CF40930F0140912E
S11319400E018091010190E00697242F30E0821768
S1131950930754F04A5F56E0540F242F30E0821767
S1131960930714F0452FF7CF465040930E0120C043
S1131970485040930F0140910E012091010130E045
S113198026503109842F90E02817390754F04A5F14
S113199056E0540F842F90E02817390714F0452F90
S11319A0F7CF465040930E0103C0865080930E013A
S11319B0F0900E018F2D90E09C012B5F3F4F82171A
S11319C093070CF0B2C0CFE0D1E00EE011E0E88064
S11319D02E2D30E0C9010896281739077CF441E020
S11319E06E2D8F2D0E94860AE3944E2D50E028819F
S11319F030E0285F3F4F421753078CF3F3944F2D89
S1131A0050E0F801208130E02B5F3F4F421753072D
S1131A10F4F28BC090EE980F9F3508F086C090E0EA
S1131A2080977C01EE0CFF1CEE0CFF1CA701480FF5
S1131A30591F80910A0190910B01019690930B011B
S1131A4080930A01A0900E018A2D90E09C012B5FE7
S1131A503F4F821793070CF046C0CA018055924F3E
S1131A607C01CFE0D1E00F2EFEE0CF2EF1E0DF2E9F
S1131A70F02DF7010491B8802B2D30E0C9010896B0
S1131A80281739070CF5A90110E0241B350BC801F0
S1131A9002C0959587952A95E2F780FF06C040E03D
S1131AA06B2D8A2D0E94860A05C041E06B2D8A2D7C
S1131AB00E94860AB3942B2D30E0488150E0FA014D
S1131AC038962E173F070CF3A394F6014081FFEFDD
S1131AD0EF1AFF0A2A2D30E0842F90E0059628178C
S1131AE039073CF201C04A2D4A5F40930E01242F6E
S1131AF030E08091010190E0069728173907ACF097
S1131B0080910C0180930E01EFE0F1E02081285FC9
S1131B10208330E08091000190E00797281739076F
S1131B2024F080910D0180930F01DF91CF911F91DB
S1131B300F91FF90EF90DF90CF90BF90AF900895FA
S1131B40EF92FF920F931F93CF93DF93082FD62F1B
S1131B50142FF22E481710F4042F182FFD1680F0BE
S1131B6012C041E06D2F8C2F0E94860ACF5F1C1794
S1131B70C0F7DF5FFD1648F01017D8F3CE2DF1CF74
S1131B808D2FDF2DF82EE02EF7CFDF91CF911F910F
S1131B900F91FF90EF900895BF92CF92DF92EF9252
S1131BA0FF920F931F93CF93DF93B0900101B694EC
S1131BB00F2EF6EFEF2EF02DEB0CD0900001D69403
S1131BC0CCE9DDE0FE2C0F2EF8EFCF2EF02DCD0C5E
S1131BD0FE0104911C2D9091020191110EC000FF91
S1131BE006C040E0612F8F2D0E94860A13C041E099
S1131BF0612F8F2D0E94860A0DC000FF06C041E0B0
S1131C00612F8F2D0E94860A05C040E0612F8F2D21
S1131C100E94860A06951F5F1D11DDCF2196F3945D
S1131C20FB10D6CFC6EADDE0C12CFE01F4900D2DE9
S1131C301C2D9091020191110EC0F0FE06C04C2D96
S1131C40602F8E2D0E94860A13C041E0602F8E2DD6
S1131C500E94860A0DC0F0FE06C041E0602F8E2D62
S1131C600E94860A05C04C2D602F8E2D0E94860A84
S1131C70F6941F5F0F5F1830E1F62196E394EB10A2
S1131C80D4CFDF91CF911F910F91FF90EF90DF9010
S1131C90CF90BF90089590910801911103C00E94C4
S1131CA0AA0908950E94711108956F927F928F92EC
S1131CB09F92AF92BF92CF92DF92EF92FF920F93D7
S1131CC01F93CF93DF93CDB7DEB728970FB6F89461
S1131CD0DEBF0FBECDBFB82EC62EF22ED02E042FDF
S1131CE010E0000F111F000F111F000F111FAE0194
S1131CF04F5F5F4F0E944B0EC801089608171907E3
S1131D00D0F4DE01119620910201222319F02C91C6
S1131D1020952C93F801E45EF24F2491F801E45AE3
S1131D20F24F3491EC912E23232B2D930F5F1F4FF1
S1131D300817190741F783E3F81621F18F1520F0EE
S1131D4090E3F91641F1FCC0E6E3FE1681F0F9E3F5
S1131D50FF12F6C0CE0101967C0107E00C0DCA9477
S1131D600F2EF7E0AF2EF02DAB0CBA94E7C0FE01B6
S1131D7031967F010F2EF7E0AF2EF02DAB0CBA9405
S1131D80912CABC0CE0101967C013E0199E0690E15
S1131D90711C812C70C0FE0131967F018E01075F9A
S1131DA01F4F0F2EF7E09F2EF02D9C0CCA9430C0CD
S1131DB0D11010C0F701808180FF06C040E06A2D79
S1131DC08B2D0E94860A15C041E06A2D8B2D0E943E
S1131DD0860A0FC0F701808180FF06C041E06A2DAA
S1131DE08B2D0E94860A05C040E06A2D8B2D0E942F
S1131DF0860AF701908196959083AA94AC10D8CF67
S1131E00FFEFEF1AFF0AB394E016F10609F498C045
S1131E10A92CCECFD11010C0F701808180FF06C05D
S1131E20482D6C2D892D0E94860A15C041E06C2D29
S1131E30892D0E94860A0FC0F701808180FF06C0A9
S1131E4041E06C2D892D0E94860A05C0482D6C2D19
S1131E50892D0E94860AF7018081869580831F5F01
S1131E6093941830B9F6FFEFEF1AFF0AC394E614FF
S1131E70F70409F465C09B2C182DCCCFD11010C0E9
S1131E80F701808180FF06C0492D602F8A2D0E94B2
S1131E90860A15C041E0602F8A2D0E94860A0FC071
S1131EA0F701808180FF06C041E0602F8A2D0E94E7
S1131EB0860A05C0492D602F8A2D0E94860AF701E3
S1131EC09081969590831F5F0F5F1830B9F6FFEFEE
S1131ED0EF1AFF0AAA94AB1499F10C2D192DCECF49
S1131EE0D11010C0F701808180FF06C040E0602F50
S1131EF0812F0E94860A15C041E0602F812F0E9425
S1131F00860A0FC0F701808180FF06C041E0602F80
S1131F10812F0E94860A05C040E0602F812F0E9415
S1131F20860AF70180818695808311501B11D8CFD2
S1131F30FFEFEF1AFF0A01500C1511F01A2DD0CF44
S1131F4028960FB6F894DEBF0FBECDBFDF91CF91B8
S1131F501F910F91FF90EF90DF90CF90BF90AF90C3
S1131F609F908F907F906F9008952F923F924F9201
S1131F706F927F928F929F92AF92BF92CF92DF9295
S1131F80EF92FF920F931F93CF93DF9320E431E0FE
S1131F90429F6001439FD00C1124A62EE12CF12C0A
S1131FA0682E712C812C912C3BC0F101EC0FFD1F8C
S1131FB04490192D80910201811110C040FE07C088
S1131FC0492D6A2D8B2D810F0E94860A16C041E08F
S1131FD06A2D8B2D810F0E94860A0FC040FE07C018
S1131FE041E06A2D8B2D810F0E94860A06C0492D7F
S1131FF06A2D8B2D810F0E94860A46941F5F18302C
S1132000C9F6219688E0B80EC530D10571F6A394BF
S113201095E0E90EF11C80E4E81681E0F80659F039
S1132020B62CC72DD82D87010C0D1D1DC801845653
S11320309F4F1C01BACFDF91CF911F910F91FF9059
S1132040EF90DF90CF90BF90AF909F908F907F9054
S11320506F904F903F902F90089580E090E00E9401
S11320607A1361E0682780E090E00E94821308956B
S113207080E090E00E947A13089581E090E00E944D
S11320807A138095682F617081E090E00E9482133A
S1132090089581E090E00E947A13809508959FEC62
S11320A0980F963028F4682F82E090E00E94821303
S11320B0089582E090E00E947A130895682F83E0E7
S11320C090E00E948213089583E090E00E947A13C6
S11320D008959093C5008093C40082E08093C0006B
S11320E088E98093C10086E08093C20008958091BE
S11320F007018150809307018091030190910401AD
S11321009C012F5F3F4F3093040120930301FC0196
S1132110E05FFE4F8081209103013091040121157D
S1132120314021F410920401109203010895109299
S113213007011092040110920301109206011092FB
S113214005010895419885E08A95F1F700004298C9
S113215085E08A95F1F700000E94D808429A98B168
S11321609B6098B908950E94A2108370E1F30895CA
S1132170CF93C82F0E94B3108C2F0E94C20843989B
S113218085E08A95F1F7000088B18A7F88B985E0F7
S11321908A95F1F70000429A88B18B6088B9CF9193
S11321A008950E94B310439885E08A95F1F70000E2
S11321B088B1897F88B985E08A95F1F700000E948B
S11321C0D808429A98B19B6098B90895CF93C82FC4
S11321D00E94B3108C2F0E94C20885E08A95F1F703
S11321E00000409885E08A95F1F70000429885E068
S11321F08A95F1F70000429A88B18B6088B9CF9133
S11322000895CF93DF93869586958695C82FD0E061
S113221084E1689FC00DD11D11248C2F0E94B81039
S11322208D2F0E94B81084E20E94E610DF91CF91B6
S11322300895CF93DF9360E080E00E940111C0E035
S1132240DAE080910201882321F08FEF0E94B81018
S113225003C080E00E94B81080EC0E94E610219731
S1132260209779F7DF91CF91089580E00E94B8100C
S113227080E00E94B81082E40E94E61084E10E948B
S1132280B81080E00E94B81083E40E94E61080E851
S11322900E94E61088E90E94E6100895CF93DF9328
S11322A0C82FD42F0E940111C0958C2F8770909154
S11322B00201992351F0D11104C0806F0E94E610ED
S11322C00DC0886F0E94E61009C0D11104C0886F48
S11322D00E94E61003C0806F0E94E610DF91CF9148
S11322E008954F925F926F927F928F929F92AF92D6
S11322F0BF92CF92DF92EF92FF920F931F93CF93EF
S1132300DF93CDB7DEB728970FB6F894DEBF0FBEC4
S1132310CDBF482E642E752ECE0101966C015E0150
S113232099E0A90EB11C8601962EE42DE7705E2E6D
S113233088E090E07C01EE1AF108692D842D0E945A
S1132340011181EC0E94E6100E94D110882E85ECC8
S11323500E94E6100E94D110282F30E00E2C02C0FB
S1132360359527950A94E2F7052C01C0880C0A9448
S1132370EAF72829F80121938F019394EA15FB05C4
S1132380E1F6662D772D6894FF24F3F8AC2CBD2C70
S1132390C12CD12CE12C41E050E0DB01EA2DFB2DD6
S11323A08C2D9D2D1E2D01919A01082E02C0220F05
S11323B0331F0A94E2F72023212B019688309105DC
S11323C011F0122FF0CF2C936F5F7F4FFA9429F7FF
S11323D028960FB6F894DEBF0FBECDBFDF91CF9124
S11323E01F910F91FF90EF90DF90CF90BF90AF902F
S11323F09F908F907F906F905F904F900895FF9281
S11324000F931F93CF93DF9300D000D01F92CDB7CB
S1132410DEB790E08A31910508F05BC1FC01EC5C09
S1132420FF4F0C9474130E94700A53C190910201DF
S113243081E08927809302010E943D100E94700A66
S113244048C10E942D1045C1809107018823E1F302
S11324500E9477108983853610F084E68983898108
S113246090E090938B0080938A0089810E945E1093
S113247030C1809107018823E1F30E947710182F5F
S11324800E944F101333B1F028F4113349F0123382
S113249061F01FC11533C1F090F01633D1F019C1AA
S11324A080EA91E00E94691014C18FEC90E00E94D0
S11324B069100FC187E690E00E9469100AC183E3A6
S11324C090E00E94691005C182E290E00E946910C8
S11324D000C180E190E00E946910FBC08091070177
S11324E08823E1F30E947710482F50E020910101E6
S11324F030E026503109241735070CF4EAC08093E4
S11325000C0180930E0110920B0110920A01E1C09C
S1132510809107018823E1F30E947710482F50E04F
S11325202091000130E028503109241735070CF4BC
S1132530D0C080930D0180930F0110920B01109273
S11325400A01C7C010E080910701882361F001E00F
S1132550010F0E947710E1E0F0E0EC0FFD1FE10FA6
S1132560F11D8083102F133070F341E08B818111B2
S113257040E06A8189810E94860AABC010E08091A4
S11325800701882361F001E0010F0E947710E1E068
S1132590F0E0EC0FFD1FE10FF11D8083102F1530CB
S11325A070F301E08D81811100E02C814B816A81FF
S11325B089810E94A20A8DC010E0809107018823BE
S11325C061F001E0010F0E947710E1E0F0E0EC0F10
S11325D0FD1FE10FF11D8083102F143070F321E0F3
S11325E08C81811120E04B816A8189810E94AF0B2B
S11325F070C010E080910701882361F001E0010FB1
S11326000E947710E1E0F0E0EC0FFD1FE10FF11DF7
S11326108083102F153070F301E08D81811100E06B
S11326202C814B816A8189810E94890B52C010E000
S113263080910701882361F001E0010F0E94771067
S1132640E1E0F0E0EC0FFD1FE10FF11D8083102F9E
S1132650143070F32C814B816A8189810E94A00D12
S113266038C010E080910701882361F001E0010F78
S11326700E947710E1E0F0E0EC0FFD1FE10FF11D87
S11326808083102F153070F301E08D81811100E0FB
S11326902C814B816A8189810E94550E1AC0F12CCC
S11326A01F2D80910701882361F001E0010F0E9432
S11326B07710E1E0F0E0EC0FFD1FE10FF11D8083E6
S11326C0102F133070F34B816A8189810E94B50FFA
S11326D0E7CF0F900F900F900F900F90DF91CF9155
S11326E01F910F91FF900895EE0FFF1F0590F49135
S11326F0E02D0994F999FECF92BD81BDF89A9927EE
S113270080B50895262FF999FECF1FBA92BD81BDD9
S113271020BD0FB6F894FA9AF99A0FBE019608955F
S1072720F894FFCF57
S10527244080EF
S9030000FC
